:020000041000EA
:1000000000B5324B212058609868022188439860DF
:10001000D860186158612E4B002199600221596106
:100020000121F02299502B49196001219960352056
:1000300000F044F80222904214D00621196600F024
:1000400034F8196E01211966002018661A6600F04E
:100050002CF8196E196E196E052000F02FF8012189
:100060000842F9D1002199601B49196000215960AB
:100070001A491B48016001219960EB211966A021F2
:10008000196600F012F800219960164914480160C1
:100090000121996001BC002800D000471248134993
:1000A000086003C880F30888084703B5996A0420EC
:1000B0000142FBD001200142F8D103BD02B5186610
:1000C0001866FFF7F2FF186E186E02BD00000240BE
:1000D000000000180000070000035F00212200005C
:1000E000F4000018222000A00001001008ED00E03C
:1000F00000000000000000000000000074B24E7A12
:100100000020042027020010C3010010C5010010C8
:10011000C1010010C1010010C1010010C101001097
:10012000C1010010C1010010C1010010C701001081
:10013000C1010010C1010010C9010010CB01001065
:10014000CD010010CD010010CD010010CD01001037
:10015000CD010010CD010010CD010010CD01001027
:10016000CD010010CD010010CD010010CD01001017
:10017000CD010010CD010010CD010010CD01001007
:10018000CD010010CD010010CD010010CD010010F7
:10019000CD010010CD010010CD010010CD010010E7
:1001A000CD010010CD010010CD010010CD010010D7
:1001B000CD010010CD010010CD010010CD010010C7
:1001C00000BE00BE00BE00BE00BE00BE00F063F870
:1001D000103800BEF2EB8871AC210310C821031067
:1001E0006402001090A31AE706005250ABB36053AC
:1001F000A824021006005250861C0302B8240210E4
:10020000060052505422A29DC424021005005250F0
:10021000DE65F468E840031000202149086006C844
:1002200081F3088810471F48006800282FD10DA4CB
:100230000ECC002902D000F012F8F9E71A491B4A47
:10024000002000E001C19142FCD1194988471949B9
:1002500088471949884700BEFDE701C901C29A4293
:10026000FBD37047C8210310C0000020E01F00200E
:10027000E84003100000042000000420E8400310C0
:1002800000100420001004200000000070470B48FC
:1002900005F034FC0047EFF30580C0B27047000062
:1002A00008ED00E0000000D0E01F002078450020AD
:1002B00009550010790B0010D1540010575600005A
:1002C00010B506F055FA10BD10B506F051FA10BD84
:1002D00010B506F071FA10BD10B506F06DFA10BD3C
:1002E0007047C04610B5024809F0A4F810BDC046DA
:1002F00060300020044B10B51A68044B044819689C
:10030000012309F09FF810BDAC440020A844002050
:100310006030002010B500F0C5FB01F0F9F8DC20DA
:1003200001F0F8FE10BDC04610B50C0084B001000D
:100330000822684606F052FA0822210002A806F0B8
:100340004DFA684602A900F0C3FD04B010BDC046D6
:1003500010B50C0084B001000822684606F03EFA91
:100360000822210002A806F039FA684602A900F026
:1003700027FA04B010BDC04610B504000800206084
:100380002000636011000830082206F027FA2000E0
:1003900002220021163006F01BFA00232000236100
:1003A000A38210BD70B582B007F07CFA234C200008
:1003B00007F0CAFA022007F0A5FA200007F02AFB8E
:1003C00000281AD101260025002300221C491D48BF
:1003D0000196009503F06AF9002300221A491B4890
:1003E0000196009503F062F9200007F013FB002846
:1003F00013D103F0C9F802B070BD03F017F907F08C
:10040000C1FC0028DED02000C022114B114907F0AA
:10041000E9F9114807F018FAD4E703F007F907F0F3
:10042000B1FC0028E5D02000C922094B094907F09A
:10043000D9F90A4807F008FADBE7C046F4240210AD
:100440004C2502108C420020502502103843002019
:10045000F824021010250210282502105825021039
:10046000F0B5CE46474680B53B4889B001F0E0FE86
:100470003A4C3B49200007F00BFE02F0A1FE394B3D
:1004800002002100180008F07DFF2100364809F025
:100490004DFC2100354809F0EBFA210034480AF000
:1004A00083F82100334809F033FE1E272100324B28
:1004B000324A3348002412F04DFA0A23314E06AD79
:1004C0006F443C802A0006943000AB802E49002304
:1004D000FFF752FF642330003C802A0006942B492A
:1004E000AB8018300023FFF747FF30003C802A0024
:1004F00006940023AC8000213030FFF73DFF01233C
:1005000099460393224B31000293224B224A98468C
:100510000193049400230094204811F039FB2048F3
:100520003C802A0006940023AC8000210500FFF7E0
:1005300023FF4B4603931B4B2900029343461A4A61
:100540000193049400230094184811F021FB09B092
:10055000C0BCB946B046F0BD5C41002088440020D4
:100560006C250210A82F0020383F0020543A0020AC
:10057000743F0020842B0020A4250210D83F0020C7
:1005800080370020D43600205103001029030010CA
:10059000E1020010AD320010150300108C42002063
:1005A0001C370020E5020010F5020010384300203F
:1005B00010B588B06B461900114A11CA11C10098D4
:1005C000596802F0BBFD02AB19000E4A11CA11C1F5
:1005D0000298039902F0B2FD04AB19000A4A11CA4D
:1005E00011C10498059902F0A9FD06AB1900074A4C
:1005F00011CA11C10698079902F0A0FD08B010BDFC
:10060000384400204C440020604400207444002002
:1006100010B5114801F00CFE0C23104A01201360A4
:10062000022100230D2450609160D36013820C4A94
:10063000146050609160D36013820A4A01341460E0
:1006400050609160D3601382074A01341460506097
:100650009160D360138210BD6041002038440020B7
:100660004C440020604400207444002010B5040075
:10067000012809D0012945D0012A69D0012B15D0C4
:100680000020022C50D010BD3C4B3D4A5B7C527C7C
:10069000DB00520013433B4A527C92001343034356
:1006A000092B2DD8384A9B00D3589F46354B344AE6
:1006B0005B7C527C9B0052001343344A527C1343B0
:1006C00008221343082B06D0092B19D10022304BE6
:1006D00030481A70D7E73048D5E73048D3E70022D2
:1006E0002B4B2F481A70CEE70022294B2D481A7049
:1006F000C9E70022264B2C481A70C4E72B48C2E7F2
:100700000020C0E71D4B1F4A5B7C527CDB0092003F
:1007100013431E4A527C134302221343092BEFD882
:10072000234A9B00D3589F46154B164A5B7C527C4C
:100730005B0092001343154A527C13430F4A527CCC
:10074000D2001343092BDBD81A4A9B00D3589F468B
:100750000B4B0A4A5B7C527C5B00D20013430B4A72
:10076000527C134304221343043B052BC8D8124A7E
:100770009B00D3589F46114885E7C046744400202B
:100780004C44002060440020A8250210384400207A
:100790006F450020AC3F002018400020F4400020AE
:1007A0009C4000204440002070400020C8400020B1
:1007B000D0250210F825021020260210EC3F002060
:1007C000F0B5DE464E4645465746E0B5A24B85B0ED
:1007D0001800994612F0D4F8A04D280012F0D0F875
:1007E0009F4F380012F0CCF89E4C200012F0C8F851
:1007F0009D4B9E4E984600234246337013704B46E5
:100800005A7C9B4B99461B78002A4AD1002084468B
:10081000002B00D0B0E049460A706D7C954A00215B
:100820001078002D4BD1002800D0ABE09248157015
:1008300002787F7C9146002201924A46002F00D028
:1008400081E0002A00D0A3E00770607C8B4C227806
:1008500000283AD19246002A00D18AE0012342467C
:100860001370874A20701370864B91461C68984617
:10087000022C00D1D4E0012253469246022C3CD9EE
:10088000032C07D1002D05D1002F03D1002801D161
:100890004346186005B0F0BCBB46B246A946A04628
:1008A000F0BD002B57D10120494630700A706D7C95
:1008B000704A0238844600211078002DB3D00028F9
:1008C000B4D1013131700239B0E79046002292462E
:1008D0004246002A03D101323270023A9246207019
:1008E000674CA1460124A3464C465A462270654AED
:1008F00014689046022C71D0C2D8002C2FD0002B47
:100900004DD1614C2368013B2360002BC2D153467B
:100910000220019AFFF7AAFE5C4B051E18600CD05E
:1009200002ABD91D01230B70036801221E6C00234A
:10093000B0472B6828009B6898470A2342462360EB
:10094000083B1360A6E7002A00D07DE70132327031
:10095000023A019278E70020002384465BE733786F
:10096000002B97D03222484B1A6001234246136075
:1009700090E700229246B2E741460130087001211B
:100980008C4648E7012341460B70030001214DE7E7
:1009900001234246137001224B46019254E753460D
:1009A0006046019AFFF762FE041E0CD002ABD91D0F
:1009B00001230B70036801221D6C0023A8472368E4
:1009C00020009B6898474B461B785A1E9341022291
:1009D0005B4293434246033313605BE7002B1FD116
:1009E0002A4B1D682A4B9D4200D153E7264C2368B1
:1009F000013B2360002B00D04CE7002D0DD002AB53
:100A0000D91D5B460B702B6801221E6C2800002349
:100A1000B0472B6828009B6898470A23236039E772
:100A20001A4B1C68002C15D002ABD91D01230B708A
:100A3000236801221D6C20000023A84723682000A2
:100A40009B6898474B461A780323002A02D14246F6
:100A500013601FE70023FAE7384400204C440020CD
:100A600060440020744400206A450020694500204D
:100A70006B4500206C4500206D4500206E45002030
:100A80006F450020AC37002044330020B02B0020FD
:100A9000EC3F002010B5024801F0CAFB10BDC04673
:100AA0006441002070B582B06B460025DC1D21003A
:100AB000DD710122002322480BF086FA2100002379
:100AC000012225701F480BF07FFA2100002301222C
:100AD00025701D480BF078FA1C4E210000230122DE
:100AE000300025700BF070FA210000230122300045
:100AF00025700BF069FA21000023012225701448AB
:100B00000BF062FA210000230122257011480BF03E
:100B10005BFA00230122210025700F480BF054FAE4
:100B20000E4B1D600E4B1D700E4B1D700E4B1D703D
:100B30000E4B1D700E4B1D700E4B1D7002B070BD24
:100B4000EC3F0020F440002044400020AC3F002057
:100B500070400020C84000209C400020AC3700209E
:100B60006B4500206C4500206D4500206E4500203F
:100B70006A4500206945002000B583B002F00CFBF7
:100B800001F046FBFFF714FD0023E1200193013340
:100B90000122002100934002073301F003FB01F022
:100BA00015FB03005B680E491B690430984701F090
:100BB0000DFB03005B680B491B690430984701F08B
:100BC00005FB094B186001F001FB002800D0043040
:100BD000064B1860FFF7E6FB002003B000BDC046DF
:100BE000382602105C260210A8440020AC440020E5
:100BF00010B5044801F01CFB0349044809F0FEF954
:100C000010BDC0466841002088440020B82B002059
:100C1000F0B5C64600B5384882B001F009FB374C44
:100C20003749200009F08CFE364B002701269846F4
:100C300021004046344A2833019700960BF058FFB4
:100C40004346324D21001D60314B324A9846019790
:100C50004046283300960BF04BFF43461D602E4B59
:100C6000210098462D4A40462833019700960BF004
:100C70003FFF43461D602A4B21009846294A4046C3
:100C80002833019700960BF033FF43461D60264B37
:100C900021009846254A40462833019700960BF0DC
:100CA00027FF43461D60224B21009846214A4046BB
:100CB0002833019700960BF01BFF43461D601E4B27
:100CC000210098461D4A40462833019700960BF0B4
:100CD0000FFF43461D601A4B21009846194A4046B3
:100CE0002833019700960BF003FF43461D6002B0C6
:100CF00080BCB846F0BDC0466C410020D83F002003
:100D00006C250210EC3F002084260210F0770210C0
:100D1000F44000209426021044400020A82602102F
:100D2000AC3F0020B826021018400020C826021050
:100D300070400020D8260210C8400020E82602108B
:100D40009C400020FC26021010B5043001F0D4FABB
:100D500010BDC04610B5043001F092FB10BDC04676
:100D600010B5043001F066FA10BDC04610B504009D
:100D7000074B1F210360406803F076FEA0681F2127
:100D800003F072FEE0681F2103F06EFE200010BD2C
:100D90003427021010B50400094B1F21036040687E
:100DA00003F062FEA0681F2103F05EFEE0681F21D1
:100DB00003F05AFE20002421FFF78EFA200010BD18
:100DC00034270210F8B5204801F032FA1F4C204BAE
:100DD000FF212360062300260127636001331D4D98
:100DE000A3601D4A0133E36009060833E26126610E
:100DF0006661A36121620620EE6304216E64AE6425
:100E0000EA642B64EF6303F02FFEEE636E64AE645E
:100E1000E3690421EB64A36907202B6463693B4306
:100E2000EB6303F021FE2E65AE65EE65E3690421F8
:100E30002B66A36908206B6563691F432F6503F068
:100E400013FE064B2360F8BD70410020483300209C
:100E50001827021000000540FFFF00003427021091
:100E60007047C04610B50300806AC20707D542101C
:100E7000186A5B6A80180268D458A04710BD4210F7
:100E8000186A5C6A8018F8E710B504002C21FFF797
:100E900023FA200010BDC04602680300926A0B4886
:100EA00010B582420FD1986AC20707D54210186A5E
:100EB0005B6A80180268D458A04710BD4210186AB7
:100EC0005C6A8018F8E718009047F6E7650E001096
:100ED0007047C046F8B53E4801F0AAF93D4B3E4C7C
:100EE0001F682000390010F0D3FF002520003B4E82
:100EF0003B4B39002660A562636224622C3010F0FF
:100F0000C7FF2000374B3900E66265652365E4645E
:100F1000583010F0BDFF344B2000E36780233900C8
:100F2000E550A665A467843010F0B2FF8423A822A0
:100F3000E6502033E4502D4B2000A350AC23390061
:100F4000E550B03010F0A4FFB023D422E650203397
:100F5000E450274B2000A350D8233900E550DC3063
:100F600010F096FFDC238022E6502033E450214B22
:100F70005200A3502000822309305B003900E55065
:100F8000FF3010F085FF842396225B00E65020336B
:100F9000E450194B5200A3502000982335305B00D9
:100FA0003900E550FF3010F073FF9A23AC225B004C
:100FB000E6502033E450114B5200A350AE235B00A7
:100FC000E550F0210023D13A0D4812F0ADF9F8BDFB
:100FD00074410020781500207C3A0020AC270210D4
:100FE000451A00109D1F0010D51C0010391E00105E
:100FF000E1180010691B001041170010351800108F
:10100000B044002070B5EE4C8CB02068002203681C
:1010100000211D680023A84720684021036808AD0F
:101020009B689847E74EFF2300220021300011F013
:101030005DFF300011F038FD0023FF220021300059
:1010400011F054FF3000E04911F0FAFC2A00DF4BA8
:10105000069503CB03C2198806AC11809B7830003B
:1010600093700B2363600023E374059301330293B1
:101070000023019380232822DB05049200932100A2
:10108000F02304AA11F028FD0698A84203D0A16815
:101090000131FFF721F9FF23FF22FF21300011F07A
:1010A00025FF3000CA4911F0CBFCCA4B06951A68DF
:1010B000300008929B882100AB80062363600023E8
:1010C000A3731233049318330593293B029300232F
:1010D00001938023DB05009304AAF02311F0FCFCAC
:1010E0000698A84203D0A1680131FFF7F5F8012363
:1010F0005822069563602281029300230193802386
:10110000023A0492DB052C3A30000592009321004C
:10111000F02304AA11F0E0FC0698A84203D0A168CD
:101120000131FFF7D9F8AC4B06951A6830000892E8
:101130001B7921002B7105236360002363737C33CB
:101140000493523B0593293B029300230193802390
:10115000DB05009304AAF02311F0BEFC0698A84218
:1011600003D0A1680131FFF7B7F89C4B06951A88A8
:1011700030002A809B782100AB700323636000233A
:10118000E372B83304938E3B0593293B029300230B
:1011900001938023DB05009304AAF02311F09CFC4B
:1011A0000698A84203D0A1680131FFF795F88C4B4F
:1011B00006951A68300008921B7921002B710523CF
:1011C000636000236373123304932E3305933F3B14
:1011D0000293002301938023DB05009304AAF023EC
:1011E00011F07AFC0698A84203D0A1680131FFF7FC
:1011F00073F801235922069563602281029300232C
:1012000001938023033A0492DB05163A30000592DD
:1012100000932100F02304AA11F05EFC0698A84276
:1012200003D0A1680131FFF757F86E4B06951A8875
:1012300030002A809B782100AB7003236360002379
:10124000E3727C3304933C3B05933F3B02930023C2
:1012500001938023DB05009304AAF02311F03CFCEA
:101260000698A84203D0A1680131FFF735F85E4B1C
:1012700006951A8830002A809B782100AB700323E2
:1012800063600023E372B8330493783B05933F3BDC
:101290000293002301938023DB05009304AAF0232B
:1012A00011F01AFC0698A84203D0A1680131FFF79B
:1012B00013F84E4B06951A68300008929B8821005F
:1012C000AB80062363600023A3731233049344337B
:1012D0000593553B0293002301938023DB05009384
:1012E00004AAF02311F0F8FB0698A84203D0A168E5
:1012F0000131FEF7F1FF012342220695636022814E
:1013000002930023019380231432DB053000049202
:10131000059200932100F02304AA11F0DDFB06984A
:10132000A84203D0A1680131FEF7D6FF304B0695E5
:101330001A68300008921B7921002B710523636025
:10134000002363737C330493263B0593553B029340
:10135000002301938023DB05009304AAF02311F0FE
:10136000BBFB0698A84203D0A1680131FEF7B4FF89
:10137000204B06951A8830002A809B782100AB709C
:10138000032363600023E372B8330493623B059345
:10139000553B0293002301938023DB05009304AAAD
:1013A000F02311F099FB0698A84203D0A1680131FF
:1013B000FEF792FF104B06951A6830001EE0C046FB
:1013C0007C150020B0440020F827021048270210A6
:1013D000F8300210542702105C2702106427021014
:1013E0006827021070270210742702107827021055
:1013F00080270210882702108C27021008929A88F2
:101400002100AA809B7904AAAB71072363600023A3
:10141000E373123304935A3305936B3B0293002317
:1014200001938023DB050093F02311F055FB069810
:10143000A84203D0A1680131FEF74EFF01234122EB
:101440000695636022810293002301938023153265
:101450000492DB0516323000059200932100F02340
:1014600004AA11F039FB0698A84203D0A168013103
:10147000FEF732FF244B06951A68300008929B88CD
:101480002100AB80062363600023A3737C330493A5
:10149000103B05936B3B0293002301938023DB05F4
:1014A000009304AAF02311F017FB0698A84203D07A
:1014B000A1680131FEF710FF144B06951A68300041
:1014C00008921B7921002B7105236360002363734D
:1014D000B83304934C3B05936B3B02930023019379
:1014E0008023DB05009304AAF02311F0F5FA069897
:1014F000A84203D0A1680131FEF7EEFE300000F0F3
:10150000FFFD0CB070BDC046942702109C2702104E
:1015100070B5FFF777FDB02200231F4C5200A35097
:101520000432A3506933643AFF33FF3AE2521B4B53
:1015300021001D881A482A0011F084F821002A0091
:1015400018482C3111F07EF821002A001648583135
:1015500011F078F821002A001448843111F072F853
:1015600021002A001248B03111F06CF821002A0045
:101570001048DC3111F066F8210009312A000E48CC
:10158000FF3111F05FF8210035312A000B48FF319F
:1015900011F058F870BDC0467C3A0020605F021020
:1015A000EC3F002044400020F4400020AC3F0020ED
:1015B0001840002070400020C84000209C400020BF
:1015C000F0B5DE4657464E4645460F22E0B5524B33
:1015D00089B001931B685B08D21A504B1B68934279
:1015E00000DA7CE09B1AD12B00DC7FE0F0271900A9
:1015F000FF1A4B4803604B4B02901F6003934A4B0A
:101600001B68934250DA494B9B4600235A461360AD
:10161000474B9A461E2352461360464B1F60464B6B
:101620005C6899461E23984664180026434D2100A5
:1016300028003A00013605F0D1F8ED19F03446459E
:10164000F5DB484600230022002111F04FFC029BED
:1016500018685B461968039B04901A6853461B6818
:101660004846059104A90692079311F0FBF90F2152
:10167000019B04A81B6801335B08C91A11F0E8FE3E
:10168000FF23FF224846FF2111F030FC484604A901
:1016900011F0E8F9484600F033FD09B0F0BCBB4654
:1016A000B246A946A046F0BD9B1A204A9346136055
:1016B000682B1EDD8722D21A904640461C4A1060D5
:1016C00092461C4A176000280DDD1B4A91461A01FC
:1016D000D31A4A461B0154685B18E418A5E7002397
:1016E00000211E2785E7144B9946AAE719001E27FB
:1016F0007FE70F4A92461E22504602600D4A17604D
:101700000D4A91461A01D31A4A461B0154685B18C8
:10171000E4181E23984688E7B42B00206C3F002075
:10172000303F0020AC2B0020703F0020343F0020D1
:10173000742F0020A42F0020B0440020F02B0020A4
:10174000F0B583B00B68050008006946DC6B012228
:1017500000230731A04700282DD06B46DB79002BF2
:1017600029D0B42464002B5D002B26D16533FF33D0
:10177000E8580130072845D8254C43001B18E15C88
:10178000E3185A789B78B2267600A8512148017058
:101790002148027021480370214811F0A7FB214B1A
:1017A0001868AB595900C9186218615C04689378CD
:1017B00024685278A04703B0F0BD194EFF23FF22E2
:1017C000FF21300011F092FB300011F06DF9002381
:1017D00000220021300011F089FB78220027124BF3
:1017E00030001A60114B353A1A60114B423A1A60B8
:1017F000084B1F70084B1F70084B1F7000F080FCD7
:101800002F55D8E70023002200210020004CBAE722
:10181000D827021066450020684500206745002053
:10182000B04400207C1500206C3F0020703F002059
:10183000B42B0020F0B583B00B68050008006946A2
:10184000DC6B012200230731A047002812D06B4631
:10185000DB79002B0ED0B4267600AC5D002C0BD1CA
:10186000FFF7D0FBB0235B00EC500433EC50643B3B
:10187000FF3BAB5303B0F0BD124CFF23FF22FF210F
:10188000200011F033FB200011F00EF9002300229C
:101890000021200011F02AFB782200270A4B2000AB
:1018A0001A600A4B353A1A60094B423A1A60094BE2
:1018B0001F70094B1F70094B1F7000F021FCAF55C2
:1018C000D8E7C046B04400206C3F0020703F0020A5
:1018D000B42B0020664500206845002067450020A5
:1018E000F0B5CE46474680B587B00B6805000800C6
:1018F0006946DC6B012200230731A04700282CD069
:101900006B46DB79002B28D0B42464002B5D002BC0
:1019100028D16A22FF32A95C00294ED13D4B98465E
:101920003D4B1A68002A45DBEF2A01DDEF221A60E1
:101930003A490B6801333AD4862B00DD86230B60CD
:1019400037494046096802920491059102A9039320
:1019500011F088F8404600F0D3FB07B0C0BCB94690
:10196000B046F0BD2B4EFF23FF22FF21300011F0C7
:10197000BDFA300011F098F8002300220021300059
:1019800011F0B4FA78220027234B30001A60234B61
:10199000353A1A60224B423A1A60224B1F70224B92
:1019A0001F70224B1F7000F0ABFB2F55D5E70023B3
:1019B0000B60C5E700221A60BAE71648AB548046B0
:1019C0001A4B194A17491B781278097811F08EFAC8
:1019D000174B1A6813019B1A164A1B0112689B18B1
:1019E00042465468E418144B1B689946002B0DDDE1
:1019F0000026124B124D1F68290020003A000136C4
:101A000004F0ECFEED19F0344E45F5D1404600F0FF
:101A100077FB85E7B04400206C3F0020703F00203A
:101A2000B42B002066450020684500206745002053
:101A3000343F0020303F0020742F0020A42F0020CE
:101A4000F02B0020F0B5CE46474680B583B00B683A
:101A5000050008006946DC6B012200230731A0471E
:101A6000002811D06B46DB79002B0DD0B424640024
:101A70002B5D002B0DD16A22FF32A95C00292DD1EC
:101A80000123AB54FFF79CFD03B0C0BCB946B04680
:101A9000F0BD294EFF23FF22FF21300011F026FA6E
:101AA000300011F001F8002300220021300011F075
:101AB0001DFA78220027214B30001A60204B353A5E
:101AC0001A60204B423A1A601F4B1F701F4B1F7049
:101AD0001F4B1F7000F014FB2F55D5E71648AB5471
:101AE00081461B4B194A18491B781278097811F066
:101AF000FDF9184B1A6813019B1A174A1B0112684B
:101B00009B184A465468E418144B1B689846002BEF
:101B10000DDD0026124B134D1F68290020003A00EE
:101B2000013604F05BFEED19F0344645F5D1484628
:101B300000F0E6FAA8E7C046B04400206C3F002061
:101B4000703F0020B42B002066450020684500202F
:101B500067450020343F0020303F0020742F0020D4
:101B6000A42F0020F02B0020F0B5D6464F46464665
:101B7000C0B582B00B68040008006946DD6B012225
:101B800000230731A84700281DD06B46DB79002BC6
:101B900019D0B4256D00635D002B1AD16A21FF3185
:101BA000625C002A3AD1B021490063580133072B07
:101BB00069D9625001223A4B1A606A230122FF332D
:101BC000E254FFF7FDFC02B0E0BCBA46B146A846BD
:101BD000F0BD344EFF23FF22FF21300011F086F9C3
:101BE000300010F061FF002300220021300011F0CE
:101BF0007DF9782200272C4B30001A602B4B353AA8
:101C00001A60274B423A1A60294B1F70294B1F70EC
:101C1000294B1F7000F074FA6755D4E721486354CC
:101C20008246254B234A22491B781278097811F005
:101C30005DF9224B1A6813019B1A214A1B01126895
:101C40009B1852465568ED181E4B1B689946002B91
:101C50000EDD1D4B00271B681C4E984631002800E6
:101C60004246013704F0BAFD4644F0354F45F5D100
:101C7000504600F045FA6A23FF33E25C093BE35823
:101C80000133072B09D81249C85CB02149006350C1
:101C9000034B1860002A96D18FE701200023F4E758
:101CA000B42B0020B04400206C3F0020703F002087
:101CB000664500206845002067450020343F00202D
:101CC000303F0020742F0020A42F0020F02B002094
:101CD000F0270210F0B5CE46474680B587B00B68B6
:101CE000050008006946DC6B012200230731A0478C
:101CF00000282CD06B46DB79002B28D0B42464005C
:101D00002B5D002B28D16A22FF32A95C00294ED11D
:101D10003D4B98463D4A1368013345D4EF2B00DD17
:101D2000EF2313603A490A68002A3ADB862A01DD6C
:101D300086220A603749404609680293049105915A
:101D400002A9039210F08EFE404600F0D9F907B0C8
:101D5000C0BCB946B046F0BD2B4EFF23FF22FF2189
:101D6000300011F0C3F8300010F09EFE0023002276
:101D70000021300011F0BAF878220027234B300000
:101D80001A60234B353A1A60224B423A1A60224BB2
:101D90001F70224B1F70224B1F7000F0B1F92F559E
:101DA000D5E700220A60C5E700231360BAE71648AA
:101DB000AB5480461A4B194A17491B781278097898
:101DC00011F094F8174B1A6813019B1A164A1B015D
:101DD00012689B1842465468E418144B1B689946D5
:101DE000002B0DDD0026124B124D1F68290020002C
:101DF0003A00013604F0F2FCED19F0344E45F5D10D
:101E0000404600F07DF985E7B04400206C3F00209B
:101E1000703F0020B42B002066450020684500205C
:101E200067450020343F0020303F0020742F002001
:101E3000A42F0020F02B0020F0B5CE46474680B5F9
:101E400087B00B68050008006946DC6B012200239F
:101E50000731A04700282CD06B46DB79002B28D017
:101E6000B42464002B5D002B28D16A22FF32A95CC8
:101E700000294ED13D4B98463D4B1A68002A45DB60
:101E8000EF2A01DDEF221A603A490B68013B3AD490
:101E9000862B00DD86230B60374940460968029295
:101EA0000491059102A9039310F0DCFD404600F077
:101EB00027F907B0C0BCB946B046F0BD2B4EFF2392
:101EC000FF22FF21300011F011F8300010F0ECFD7E
:101ED000002300220021300011F008F878220027AA
:101EE000234B30001A60234B353A1A60224B423A9A
:101EF0001A60224B1F70224B1F70224B1F7000F084
:101F0000FFF82F55D5E700230B60C5E700221A60C4
:101F1000BAE71648AB5480461A4B194A17491B7842
:101F20001278097810F0E2FF174B1A6813019B1A18
:101F3000164A1B0112689B1842465468E418144B59
:101F40001B689946002B0DDD0026124B124D1F68B1
:101F5000290020003A00013604F040FCED19F0346D
:101F60004E45F5D1404600F0CBF885E7B04400205F
:101F70006C3F0020703F0020B42B002066450020FD
:101F80006845002067450020343F0020303F002096
:101F9000742F0020A42F0020F02B0020F0B5CE4697
:101FA000474680B587B00B68050008006946DC6BC2
:101FB000012200230731A04700282CD06B46DB7993
:101FC000002B28D0B42464002B5D002B28D16A227A
:101FD000FF32A95C00294ED13D4B98463D4A13681B
:101FE000013B45D4EF2B00DDEF2313603A490A682B
:101FF000002A3ADB862A01DD86220A6037494046FC
:10200000096802930491059102A9039210F02AFD38
:10201000404600F075F807B0C0BCB946B046F0BD08
:102020002B4EFF23FF22FF21300010F05FFF300016
:1020300010F03AFD002300220021300010F056FF7E
:1020400078220027234B30001A60234B353A1A6060
:10205000224B423A1A60224B1F70224B1F70224BB8
:102060001F7000F04DF82F55D5E700220A60C5E734
:1020700000231360BAE71648AB5480461A4B194A3E
:1020800017491B781278097810F030FF174B1A683F
:1020900013019B1A164A1B0112689B18424654688A
:1020A000E418144B1B689946002B0DDD0026124BDB
:1020B000124D1F68290020003A00013604F08EFB03
:1020C000ED19F0344E45F5D1404600F019F885E79A
:1020D000B04400206C3F0020703F0020B42B002053
:1020E000664500206845002067450020343F0020F9
:1020F000303F0020742F0020A42F0020F02B002060
:1021000010B5034B0100180000F09CFF10BDC04645
:102110001045002010B5034B0100180000F078FABC
:1021200010BDC04610450020F0B5184889B000F039
:102130007FF801A8002110F039FC154F154C039BC6
:10214000676000272781144F079A276000270499AA
:102150000198029E069DE361104BA2622362E36236
:102160006162E0600E4927746661A56101F05AFC66
:10217000E069012102F078FC0121606A02F074FC40
:10218000200000F04DFD09B0F0BDC04678410020B0
:10219000F000870010450020B0350210FFFFFF7FE0
:1021A000A0ACB90370B584B008AC20CC2678064C3E
:1021B00000930296130001950A000100200012F01E
:1021C00021F904B070BDC046F03E002000487047C1
:1021D000F03E002010B5094C82B0094800F028F804
:1021E000019480248022A400064B074900945200E9
:1021F000064812F0D1F802B010BDC04600400340BE
:102200007C410020E83B0020F03D0020F03E002013
:1022100010B5064801F096FC192002F04FFCD023BF
:1022200080221B0692045A6210BDC0463044002032
:102230007047C04670B52C4D0177AC5C695C427745
:102240008377EA5CC37F59435C435343027B002A94
:1022500005D1C943E443DB4389B2A4B29BB206680B
:1022600035076D0FAA005219204D9200AC4662440A
:10227000F60730D41E4D166871400D40802149018B
:102280000A431560456826002907490F8A0052183D
:10229000164992008C466244ED0722D41449146812
:1022A000806874402140802464012243116001074A
:1022B000490F8A0052180D4992008C461C00624456
:1022C000C0070BD40A4913686340194080235B019F
:1022D0001343196070BD074D0904CCE705491C0480
:1022E000F1E704492604DAE7343402100C00054013
:1022F000FFFF00000000FFFF70B52C4B027F447F02
:10230000857F9A5C1C5D5B5D4A434C43C1775943B2
:10231000037B002B05D1D243E443C94392B2A4B25C
:1023200089B2066835076D0FAB005B19204D9B0025
:10233000AC466344F60730D41E4D1E68724015400B
:102340008022520113431D60456826002A07520F60
:1023500093009B18164A9B0094466344ED0722D4D1
:10236000144A1C688068744022408024640123431E
:102370001A600207520F93009B180D4A9B00944667
:102380000C006344C0070BD40A4A196861400A4034
:10239000802149010B431A6070BD074D1204CCE740
:1023A000054A0C04F1E7044A2604DAE73434021043
:1023B0000C000540FFFF00000000FFFF70B52C4B34
:1023C000027F995C427F9C5C827F9B5CC27F514311
:1023D00054435343027B002A05D1C943E443DB4302
:1023E00089B2A4B29BB2066835076D0FAA005219D4
:1023F000204D9200AC466244F60730D41E4D16685C
:1024000071400D40802149010A431560456826004E
:102410002907490F8A005218164992008C466244D7
:10242000ED0722D414491468806874402140802448
:102430006401224311600107490F8A0052180D49B7
:1024400092008C461C006244C0070BD40A491368F2
:102450006340194080235B011343196070BD074D31
:102460000904CCE705491C04F1E704492604DAE72E
:10247000343402100C000540FFFF00000000FFFF95
:10248000F0B5D6464F4646460500C0B5081C404943
:10249000161C1F1C03F009FE041C04F00FF8011C9D
:1024A0008146201C03F0E1FD3A498246381C03F0C6
:1024B000FCFD041CFE20311C800503F0D6FD211C10
:1024C00003F0F3FD03F088FE311CC7B2504603F061
:1024D000ECFD011CFE20800503F0C7FD211C03F06C
:1024E000E4FD03F079FEC3B2FE2051468005984614
:1024F00003F0BBFD311C03F0D8FD011CFE2080055C
:1025000003F0B3FD211C03F0D0FD03F065FEC6B25D
:10251000484603F02FFE062103F022FB05290AD8C6
:102520001D4B89005B589F46201C03F055FE434617
:1025300028776F77AB772800FFF740FFE0BCBA46FB
:10254000B146A846F0BD2E776F77201C03F044FEFD
:10255000A877F0E7201C03F03FFE6E772877AF776F
:10256000E9E74346201C2B7703F036FEAF77687708
:10257000E1E72F77201C03F02FFEAE776877DAE7CC
:1025800043462F776B77201C03F026FEA877D2E70F
:102590000000C04000007F431C34021082B0009253
:1025A000019302B07047C04600207047002070477A
:1025B0007047C046136880229C46A023F0B505688A
:1025C000DB05EC6B0F68A401E6180C4B5204E11814
:1025D0000B681342FCD16346B3604368F763013371
:1025E0004360EA88934200D0F0BD044B80219C46B2
:1025F0004904644422680A42FCD1F5E71000005007
:1026000010B5036812680968D8681FF0A9FE10BDEC
:1026100070B50400080003F086FD134903F02FFD98
:10262000124903F06BFFA56A11492B075B0F9C0051
:10263000E418104BA4009C46644403F036FDFC21D2
:10264000890503F017FD03F0C7FD80B2ED0708D43C
:10265000094B2268424013408022520122431360FA
:1026600070BD064B0004F4E700007F433333334072
:1026700000FF7F470C000540FFFF00000000FFFF48
:10268000C36810B50400002B00D010BDC06B01F072
:102690004FFA002811D00123E06BA0218340114A9A
:1026A000C9058B50104B80219C468201624449042D
:1026B00013680B42FCD101F031FA216B606B01F021
:1026C00081F90028E1D00122216B606B8A40036808
:1026D0009343036001F086F9216B606B01F062F9AE
:1026E000D3E7C046440400000C000050012A07D084
:1026F000022A09D0032A01D0002A03D00020704703
:102700000160FBE70260F9E70B680360F6E7C0468B
:1027100010B5012A07D0022A09D0032A01D0002AC5
:1027200003D0002010BD0160FBE70260F9E714C987
:1027300014C0F6E7F0B583B06B46D97101231900D8
:102740001600826905009140D0221206916141690C
:10275000180088409061E868002838D06B46012254
:10276000D91D1FF0FDFD002E0CD00123AA69E868D9
:102770009340D0221206536100280BD0042231006E
:102780001FF0EEFD01236A699340D02212065361C7
:1027900003B0F0BD0122371D286B14000300103375
:1027A0009C40696B4B681C42FCD10430337880003C
:1027B000091801360B70B742EED101222B6B696B01
:1027C00018339A408A608B681342FCD0DAE7286B92
:1027D000696B0200103293404A681342FCD16B4689
:1027E00001220430DB79800009180B702B6B696BB8
:1027F00018339A408A608B681342FCD0B3E7C04616
:1028000030B583B06B46D971012319001500826978
:1028100004009140D022120691614169180088405D
:102820009061E068002833D06B460122D91D1FF06B
:1028300097FD002D0DD001221100A369E068994099
:10284000D0231B06596100280BD0012229001FF05C
:1028500087FD012362699340D0221206536103B0C1
:1028600030BD206B616B030010339A404B681A42F5
:10287000FCD1012204302B78800009180B70236BE7
:10288000616B18339A408A608B681342FCD0E0E792
:10289000216B626B08001030834050680342FCD10A
:1028A0006B460431DB798900521813700122236BC7
:1028B000616B18339A408A608B681342FCD0B8E78A
:1028C000F8B50400B42955D001205A2918D1A3889D
:1028D000E288E380A28063688F4A934200D17FE060
:1028E0008E4A934221D18E4B8E4A8F4D13608F4B6F
:1028F0002B60002800D0FDE070238D4E337087E000
:10290000872300205B009942E1D06368824A9342AA
:1029100000D1A9E0814A934200D086E0804B814AF1
:10292000814D1360814B2B60E6E7824A934231D19F
:10293000BF2301389843C0307D4EA021D02730708E
:10294000BA207D4B774A784D89010002BF016B8028
:102950001780298050802A212000FFF7EBFE2A00F3
:1029600020002B21FFF7E6FE320036212000FFF782
:1029700047FFF8BD4368684A934200D180E0674A48
:10298000934265D1664B674A674D1360674B2B6076
:10299000B023B2E7694A934211D1694B614A624D53
:1029A0001360EF231B042B60B023002847D0604E38
:1029B00000213370EF23002762481B02C7E7624AF9
:1029C000934200D09DE04342C0201840584E002161
:1029D0003070EF2000275B4B524A534D0002B6E7A0
:1029E000237C002B44D087235B0099426ED02820A3
:1029F0005A295BD000234B4A4B4D1380A3884C4E81
:102A0000013B9BB253801B186B80042328803370DA
:102A10001788508829886B887FBA40BA49BA5BBA50
:102A2000BFB280B289B29BB291E7424A0020934282
:102A300000D181E741493B4A3B4D8B4265D1702330
:102A40003B4E00213370EF2300273E481B027EE7F8
:102A5000384AC020934200D16EE7384A93424BD1A6
:102A6000B023304A304DA2E7237C2820002BC1D16F
:102A700087235B0099423BD05A2937D00020B9E721
:102A8000037C00215A1E934127225B429343254A2F
:102A9000254D118081885033013989B251802B80B6
:102AA000C918C423224E69803370B1E728211D4A1A
:102AB0001D4D1180A3881E4E013B9BB2C918518049
:102AC0006B800021642329803370A1E72821154AF7
:102AD000154D1180A388164E013B9BB2C918518039
:102AE0006B800021A0232980337091E70021DEE76D
:102AF0005021ECE7B02300E7134AC020934200D1F5
:102B000064E7084A084D0A4E82E70F4900208B42CD
:102B100000D15BE7064E7BE7F000F000F000870095
:102B20002800170144410020484100203500BB0027
:102B3000724500208700F000011700004001F000FE
:102B400000003F01013F0000F0004001F0B583B0FC
:102B50001E006B46D971012319001400826905001B
:102B60009140D0221206916141691800884090611D
:102B7000E86800283BD06B460122D91D1FF0F0FB0E
:102B8000002E0CD00123AA69E8689340D0221206D7
:102B9000536100280BD0220031001FF0E1FB01231C
:102BA0006A699340D0221206536103B0F0BD331915
:102BB0009C460127002C10D0286B3C0003001033EA
:102BC0009C40696B4A681442FCD104303378800021
:102BD000091801360B70B445EED101222B6B696BDD
:102BE00018339A408A608B681342FCD0D7E7286B71
:102BF0006A6B010010318B4051680B42FCD16B466F
:102C00000430DB7980001218137001222B6B696B82
:102C100018339A408A608B681342FCD0B0E7C046F4
:102C2000F0B5012504000521806983B001F01CFF87
:102C30002A00A369D0269A4036066069726205218F
:102C400001F012FF2A006369A06A9A40D24B7262B7
:102C5000984200D0BCE06B46DD1D01231800A1693D
:102C60002B708840D02109068861E0688A610028BD
:102C700000D15FE1012229001FF072FB0126320022
:102C80006369D0279A403F0696207A6101F0DAFB0B
:102C9000352332002B70A369E0689A40BA61320094
:102CA00063699A40BA61002800D12CE10122290011
:102CB0001FF056FB012362693A219340D02212068D
:102CC00053612000B54AFFF79BFDB54B0522B221A9
:102CD0002000FFF73BFFC0212000B24AFFF790FD24
:102CE000C2212000B04AFFF78BFDC3212000AF4A6C
:102CF000FFF786FDC4212000AD4AFFF781FDAD4BF3
:102D00000222D0212000FFF721FFAB4AC62120007C
:102D1000FFF776FD6368A94A934200D166E1A84AAD
:102D2000934200D11CE121232B70203B1900A269A2
:102D300018009140D022120691616169884090612B
:102D4000E068002800D1C7E0012229001FF008FB3D
:102D500001231900626911209140D0221E00120641
:102D600051612870A0698640E068966191610028F1
:102D700000D19AE0012229001FF0F2FA0123190084
:102D8000626929209140D0221E00120651612870EC
:102D9000A0698640E06896619161002800D16DE0ED
:102DA000012229001FF0DCFA01252A006369642052
:102DB0009A40D0231B065A6101F044FB2000218970
:102DC000FFF77EFD744BA26A9A4237D103B0F0BD83
:102DD00007264208324093009B187A4A7A49944663
:102DE00000229B00634419611A609A60DA60103215
:102DF00019615A6004211D6001F036FE2368734A90
:102E0000DB68934200D009E17149A36A8C465A08F5
:102E1000704916402B40B2005B420B4092196A4940
:102E2000920062448C46116863440B408021490142
:102E30000A4313602A0063699A400CE7322001F0CC
:102E400001FB2368614ADB68934200D0EDE0A16A90
:102E50000A07520F93009B185D4A0D4094465D4A45
:102E60006D421540584A9B00634494461A68654475
:102E700095438022520113431D60A7E7206B616BCD
:102E80000200103293404A681342FCD129230122E8
:102E90000430800009180B70236B616B18339A4063
:102EA0008A608B681342FCD07EE7206B616B020066
:102EB000103293404A681342FCD11123012204309E
:102EC000800009180B70236B616B18339A408A607D
:102ED0008B681342FCD051E7206B616B020010320B
:102EE00093404A681342FCD1212301220430800020
:102EF00009180B70236B616B18339A408A608B68DA
:102F00001342FCD024E7216B626B0B0010339E4010
:102F100053683342FCD135230431890052181370B1
:102F20000122236B616B18339A408A608B681342CD
:102F3000FCD0BFE6206B616B0200103293404A6800
:102F40001342FCD101220430800009180A70236B5F
:102F5000616B18339A408A608B681342FCD08DE60F
:102F60002000B7211C4AFFF74BFC2000BB211B4A65
:102F7000FFF746FC2000D621194AFFF741FC20004C
:102F80000E22E021174BFFF7E1FD0E22E121200088
:102F9000154BFFF7DBFDC6E6FFFFFF7F3435021060
:102FA000A0350210383502103C35021040350210B1
:102FB000101003104435021048350210F000F000E4
:102FC0004001F00000000540FFFF00001126001046
:102FD0000C0005400100FEFF743502107835021028
:102FE0007C3502108035021090350210B721200088
:102FF000104AFFF705FCBB2120000F4AFFF700FC39
:103000000E22E02120000D4BFFF7A0FD0C4B0E22FD
:10301000E1212000FFF79AFD636880E6002120008F
:1030200098472A0063699A4015E6FF2120009847D7
:10303000CCE6C0464C350210503502105435021013
:1030400064350210F0B587B06B460D00D91D2C23F6
:103050000B702B7A0400062B5FD0C06800282CD0A0
:1030600001263200A369D0279A403F06BA61320098
:1030700063699A40BA6101221FF072F9A3690022C4
:103080009E402B687E619B6A0392284A02940592B7
:10309000274A04920621280002AA9847049B002B85
:1030A00003D002A9032208009847012362699340D4
:1030B000D0221206536107B0F0BD01221100A369AE
:1030C00010009940D0231B0699616169884098617E
:1030D000206B616B030010339A404B681A42FCD19D
:1030E0002C2301220430800009180B70236B616BC4
:1030F00018339A408A608B681342FCD00123A2697E
:103100009340D0221206536100222B689B6A0392DF
:10311000084A02940592084ABBE78188C2886B6816
:103120004A432C215200FFF711FDC4E7012600108D
:10313000ED260010B52500101127001010B582B043
:1031400001910521040001F08FFC0123D022A3404E
:10315000120693626B461B79002B06D000220121D8
:10316000200001F099FC02B010BD012200212000D6
:1031700001F092FCF7E7C046D0221206526882B0F6
:10318000C240009001200191C9B21040002901D035
:103190000123584002B0704710B503F0FFFF10BD87
:1031A00010B502F04DF810BD00487047942F002074
:1031B000004870476C330020004870472C340020D2
:1031C000004870474437002010B50848FFF730F832
:1031D000074800F0C5F8074800F0C2F8064800F0BC
:1031E000BFF8064800F0BCF810BDC0468041002082
:1031F000942F00202C340020443700206C33002012
:103200007047C04610B504000C21FDF765F820009A
:1032100010BDC0463F2110B5024B034A034802F0DF
:1032200059F9C046CC350210E8350210203602109C
:1032300000220B4B10B51A6001F0CCFF00290DDB0A
:1032400007D0FA220023920002F0F4FC054B18602C
:1032500010BDFA21890002F0ABFCF7E7FFF7DAFFB7
:10326000782F0020683F002010B501F0B3FF00293F
:1032700015DB0ED0FA220023920002F0DBFC0400E2
:103280000849094A0B6810681460181A0019086088
:1032900010BDFA21890002F08BFC0400F0E7FFF773
:1032A000B9FFC046782F0020683F002030B583B0BA
:1032B000040001F08FFF002924DB1ED0FA22002336
:1032C000920002F0B7FC104B104A1968156818609C
:1032D0006D1A2D18156000210822200003F078FADD
:1032E000FA226846290092001DF0D2F82000009BC7
:1032F0002360019BA38003B030BDFA21890002F056
:1033000057FCE0E7FFF786FF683F0020782F00209A
:1033100010B50648FEF78CFF054C0121200003F094
:10332000F9FE044B0833236010BDC04684410020E1
:1033300054370020783602107047C04610B504009C
:103340001021FCF7C9FF200010BDC04610B50400D5
:103350000820FCF7B5FFE06000F012FC10BDC0468D
:1033600010B50400012103F0D5FE034B20002360BB
:103370000023E36010BDC046943602107047C0467B
:10338000C06810B5002801D01FF02AF810BDC04653
:10339000C06810B5002801D01FF042F810BDC0462B
:1033A0007047C0467047C04610B504001421FCF7B2
:1033B00093FF200010BDC04610B504002021FCF78B
:1033C0008BFF200010BDC04610B504000820FCF79C
:1033D00077FF1023E15E024AE06000F0EDFB10BDD4
:1033E000FF7F000010B580691EF08AFF012358405E
:1033F000C0B210BD70B5002604000D00074B46603A
:1034000008338660036001210C3003F083FE044B17
:103410002000A661E561E36070BDC046B4360210CD
:10342000A836021010B580691EF0A2FF10BDC0467C
:1034300010B580691FF024F810BDC0467047C04623
:103440007047C0467047C046406D704710B5C06AAF
:1034500003681B69984710BDC06A70477047C04633
:103460007047C04610B5303005F080FA10BDC04638
:1034700010B504001421FCF72FFF200010BDC0463A
:1034800010B504002421FCF727FF200010BDC04622
:103490000C3870477047C04610B500F063FA03233C
:1034A000094C0A4A63600A4B586803681B6A9342D6
:1034B00008D1C06A03689B68984700F0D9F90123D6
:1034C000636010BD9847F5E7E83D002059340010CF
:1034D000603F00200C3810B504001421FCF7FCFEFE
:1034E000200010BDF8B5CE464746204C0C300025D4
:1034F0000600200080B51E4F65600837A560276074
:1035000000210C30FFF776FF22002000E6624032F7
:1035100010231849303005F0A3F92000164BE5655B
:1035200099462363154B2566A76565651C600021D8
:1035300064309846FFF75EFF842322002000E650A7
:103540000F499832743B883005F08AF94A4688233F
:10355000E250AC22873BA350424658345460094A9B
:1035600013605360C0BCB946B046F8BD7C33002040
:103570005C380210CC36021010370210603F002079
:10358000D4360210E83D002070B5184C2378002B8B
:103590001CD1174D2B68022B19D1012323706B68A6
:1035A000022B1CD000F0DEF903232B60114B124AD2
:1035B000186803681B6A934215D1C06A03689B6848
:1035C00098470121012002F039FAFEE770BD0B484F
:1035D00000F0EAF8012323706B68022BE2D108485F
:1035E00000F09AF9DEE79847E8E7C046704500200A
:1035F000E83D0020603F002059340010DC36021006
:1036000099340010014B1878C0B270477045002003
:10361000D0221206126810B5034B9200D0580C301D
:10362000FFF706FF10BDC046603F0020D022120603
:103630001268054B9200D35810B518001B6B303040
:10364000DB6E984710BDC046603F0020D0221206B6
:103650001268024B9200D358586D7047603F0020AB
:1036600070B50600FFF7A4FD0400FFF789FE0D4DBD
:103670002B68032B0CD06B68032B05D10A4B300051
:10368000596833689B6898472000FFF781FE70BD3A
:10369000054B3000196833689B6898470028EAD1C9
:1036A000F2E7C046E83D0020603F0020134B70B5B4
:1036B0001A680400012A16D05A680020012A00D096
:1036C00070BD0F4D013268685A60303005F0A4F9C2
:1036D0000C4B68681B78C462002BF1D00A4800F0DC
:1036E0001BF96868ECE7064D013228681A60303033
:1036F00005F092F92868C462E2E7C046E83D002080
:10370000603F0020704500209934001010B50A4831
:10371000FEF78EFD094C0121200003F0FBFC200088
:103720000C3003F0D7FD064B1A002033E360012371
:1037300008322260237410BD8841002060370020C9
:103740002038021010B50400034B083303600C301E
:10375000FFF726FE200010BD5C38021010B50400F3
:10376000054B083303600C30FFF71AFE2000582188
:10377000FCF7B2FD200010BD5C38021010B50C3013
:10378000FFF730FE10BDC04610B50C30FFF72AFE23
:1037900010BDC0467047C04610B504009421FCF728
:1037A0009BFD200010BDC04670B5050010F056FF0F
:1037B0000400036809491B69984723682900200011
:1037C0001B699847236806491B6920009847FA201F
:1037D000FFF7E6FC022010F091FF70BD8838021060
:1037E000104F02100FB430B583B006AB0E4C20CB97
:1037F00020000E49019305F00FF9019A29002000DD
:1038000005F02CFA10F02AFF036821005B69984745
:10381000FA20FFF7C5FC022010F070FF03B030BCA7
:1038200008BC04B01847C046B037002088380210E2
:1038300010B50748FEF7FCFC064A80231400103C34
:103840002000054905F00CF8044B236010BDC0466C
:103850008C410020C03700201C420210A438021006
:1038600003BDC04610B5040001F02CFCA04710BDFC
:103870008022054B520205491A600B681342FCD0A6
:10388000034B1A607047C046042001400400014009
:1038900004300140F0B5040087B00F200E0017007F
:1038A00001F040FA002105000F2001F029FA002361
:1038B00000220092019301230293D02304960594E1
:1038C000002600240121022003971B06002C14D09F
:1038D0001A6D1042FCD05C6540BF1A6D114203D1D5
:1038E00020BF1A6D1142FBD09A6DA2420AD0002669
:1038F0006C46B200A458E9E79A6D1A6D1142FBD1EB
:1039000040BFE5E70136062EF2D129000F2001F075
:10391000F7F907B0F0BDC0460B4B0C4A10B5934207
:1039200001D201235B421900094A985004329B508E
:10393000084B094A09488B50094B9A68044B9C462E
:103940006144FFF7A7FF10BD000804200000042019
:10395000F407000065380010FC0700006138001013
:1039600000ED00E010B501F0C7F804000B48036853
:10397000002B0FD0200001F0CBF8D0231B061C68D1
:1039800007490F34200001F0E1F90121200001F086
:10399000B7F910BD00F0E6F8ECE7C046F0440020AF
:1039A000C1000020054B10B59C466044434258417D
:1039B00080004118024801F031F910BD0000D0AF7D
:1039C00074450020054B10B59C4660444342584165
:1039D00080004118024801F0A5F810BD0000D0AFEA
:1039E000744500204B005B18DB00C3181A00D0326E
:1039F000126830B59203094CD2172240084C183196
:103A0000A44601248C40456862442C4204D1D8333A
:103A10001A6041680C42FBD030BDC046E0DFFFFFBA
:103A200080800000F8B557468246384B45465344DF
:103A30005A425341802292029446DE464E465B42F1
:103A40001B0C334A1B046344E0B51360314A0D007C
:103A50003149136018008A6890438146FAD10620E4
:103A600001F04EFF804680200221EF0D6E02AB0D6B
:103A7000AA02400005E0904507D392197B4181429C
:103A80003FD00C000231002BF5D0802627023F1BCF
:103A9000760002E03F1B012E35D039004046B34688
:103AA000013E02F085F88542F4D259463302994628
:103AB000614353464A461C611B6850465340FF22EF
:103AC0001202134080225201024313600723006850
:103AD0005840C833034013605346802203209201AC
:103AE000243313431860534604331A4302234046D9
:103AF000136002F05DF8F0BCBB46B246A946A04692
:103B0000F8BD0C00C1E72100D3E7C0460040FCBF70
:103B100000E0004000F0004000C0004010B5034B42
:103B20000100180001F07AF810BDC046644500207D
:103B300010B5034B0100180000F0F4FF10BDC046A3
:103B40006445002010B50400012001F0ABF8044BDF
:103B50009C46604480002060BFF35F8F10BDC0466C
:103B60004000003410B5040001F090F8010020007E
:103B700000F032F8FF232371BFF35F8F10BDC04602
:103B800010B5040001F082F80100200000F024F8D4
:103B9000FF23A380BFF35F8F10BDC0463F2110B548
:103BA000024B034A034801F095FCC046CC35021095
:103BB000943A02102036021070B504000E00150071
:103BC00001F064F80100200000F006F8A680E5800E
:103BD000BFF35F8F70BDC046024B9C4661448900B5
:103BE00001607047400000340A4B1968EFF3108001
:103BF00072B60A68002AFCD0BFF35F8F1B68BFF360
:103C00005F8F00221A6080F3108840BF00200021DF
:103C10007047C0460C4500203B2110B5024B034ABB
:103C2000034801F057FCC046AC3A0210483D021070
:103C3000D03A021070B5002920D003681C7BA14245
:103C40001CD883680E4884466144090159180D68E0
:103C50004968002A12D0A24210D8624412019B186F
:103C60005A6801208A4201D9C0B270BD8A4201D08F
:103C70000020F9E71B68AB42F6D8F9E7FFF7CCFF65
:103C8000FFFFFF0F3F2110B5024B034A034801F02D
:103C900021FCC046CC350210143D02102036021023
:103CA000682110B5024B034A034801F013FCC046DB
:103CB000183B0210A43D0210343B021070B50029DD
:103CC00019D0057BA94216D84B0004685B18033B4A
:103CD000E318002A17D091420FD0AA420BD8500007
:103CE000801803382418A1701978002901D11A709E
:103CF00070BD6170FBE7FFF7D3FF7121054B064AEA
:103D0000064801F0E7FB7021054B034A034801F028
:103D1000E1FBC0469C3B0210903D0210343B021078
:103D2000903B0210402110B5024B034A034801F0BA
:103D3000D1FBC046AC3A02106C3D0210D03A0210E2
:103D40005C2110B5024B034A034801F0C3FBC04697
:103D5000B43B0210543D0210D03A0210F0B54F4669
:103D60004646D646C0B598460AAB1C780BAB1B78C6
:103D70000600170099460568002C36D06B7B296831
:103D80002A7BA3425BD0944264D863001B19033B97
:103D9000C9188B78002B52D12F4BE218B36812014F
:103DA0009B1842465A60089A1F609A60099ADA6026
:103DB00000238B704B700B706B7B9A46002B2ED0C0
:103DC00022005146A8686B689847002822D022003C
:103DD00051462800FFF772FF53466B7354451FD0BE
:103DE000E0BCBA46B146A846F0BDAC7B002CF7D08B
:103DF0002B7BA3422ED3630029681B19033BC918F0
:103E00004B78AB73002B00D1EB7300238B704B709E
:103E10000B70C1E7524621002800FFF74FFF6C737B
:103E20003A004346307D01F0A1FA051E02D04B4610
:103E3000002B0AD00C9B002BD2D01D70D0E765213F
:103E4000064B074A074801F045FB2100306800F0A7
:103E500079FDEFE7FFF724FFFFFFFF0FD83B0210CC
:103E6000B03D0210D03A0210F0B5D6464F46464655
:103E7000404DC0B581468A466A68EFF3108872B635
:103E80001368002BFCD0BFF35F8F2E68B47B002C2F
:103E900048D0337BA34266D3630037681B19033BCA
:103EA000FF187B78B373002B00D1F373324BE21809
:103EB000AB6812019B184A461A6052465A602F4A54
:103EC0009A600022DA60BA707A703A70777B002FBD
:103ED00036D022003900B0687368984700282AD08D
:103EE000220039003000FFF7E9FE7773BC4228D08A
:103EF00000262B681B7BA3422FD3EB681B19013BC9
:103F000019786B68BFF35F8F00221A6088F31088FE
:103F10000020002E01D108022043E0BCBA46B14681
:103F2000A846F0BD6B68BFF35F8F1C6088F31088F4
:103F300001204042F1E73A0021003000FFF7BEFEC9
:103F400074734A465346287D01F010FA061ECFD0FE
:103F50002100286800F0F6FCCBE74021084B094A15
:103F6000094801F0B7FA6821084B094A094801F0ED
:103F7000B1FAC04680150020FFFFFF0FE93B00109B
:103F8000AC3A02106C3D0210D03A0210183B0210FD
:103F9000A43D0210343B0210F0B5DE4657464E46B3
:103FA00045460023E0B58DB00A93944B8200D35868
:103FB0000B909B4600235C469A4601F00BF90200E9
:103FC0000B1E67DB6068EFF3108872B6016800298A
:103FD000FCD0BFF35F8F2068417B894600295FD00A
:103FE000017B494500D2E5E08549A56849440901BE
:103FF0006D182E686F68B61A9F41002F58DD2A6829
:104000006B680B9801F0B2F900220023002500260E
:10401000089209936368BFF35F8F52461A6088F372
:104020001088002E08D10028C7D10DB0F0BCBB46C7
:10403000B246A946A046F0BD4A460A9B29001B028B
:104040001A4310009046B047069007916268EFF35C
:10405000108B72B65F461368002BFCD0BB46BFF3D3
:104060005F8F079B002B79DB069A079B1100194392
:104070003FD02369002B3CD0434500D0B2E001F093
:10408000A9F8002906DB069A079B12184B419942B2
:1040900000D883E03F215B4B5B4A5C4801F01AFA91
:1040A0000022002300250026002008920993B1E792
:1040B000002F01D1002EA2D1002100F085FB484540
:1040C00000D089E02A686B68AE6808920993ED68B1
:1040D000002E7BD023681B7B4B4571D34A46E36897
:1040E00000204B44013B1B780A931B0213432361BE
:1040F00090E74A462368002A0ED05A7B4A450BD0E7
:104100001D7B1868A9454FD84A4652004A44821878
:10411000033A9278002A05D0F6213D4B3D4A3E48AD
:1041200001F0D8F9D97B002907D0A9423CD84A0030
:10413000521849468218033A51704A46DA73E168C8
:10414000013A8B5C01338B54534623616368BFF3A0
:104150005F8F52461A608BF310882EE72369002B7D
:10416000C7D0434544D106980799089A099B121A6B
:104170008B410898099999428CD801D1904289D8ED
:10418000002B87DB51460491012103914946200011
:10419000029101950096FFF7E1FDD5E79942EFD135
:1041A000904200D976E7EBE768211C4B1C4A1A487D
:1041B00001F090F93B211B4B1B4A1C4801F08AF986
:1041C0004021184B1A4A194801F084F99021194BE3
:1041D000194A164801F07EF98C21184B164A1348EB
:1041E00001F078F9A221164B134A104801F072F938
:1041F0009F21134B104A0D4801F06CF9F844002040
:10420000FFFFFF0FCC350210143D021020360210C4
:10421000603C0210803D0210343B0210183B02103B
:10422000A43D0210AC3A0210483D0210D03A0210F0
:104230006C3D0210183C02102C3D0210003C021094
:10424000243C021010B5124C6368002B04D00A21E4
:104250001048FFF7C1FC10BD23000F4A1021206851
:1042600000F086F9032000F0A9FF032001F0F6F822
:1042700003200A4901F034F800F008FD084B9C4681
:10428000032360442375074B80006060DC60DEE739
:10429000801500200C450020353C0010993F00108F
:1042A00040000034F8440020F8B542680400EFF301
:1042B000108672B61368002BFCD0BFF35F8F2568A1
:1042C000CFB26B7B2A68287BBB4232D0002F40D014
:1042D00087423ED8FF230B405800C0181218033AFB
:1042E0009278002A19D02269914236D0090ACAB2BE
:1042F0009446E2680020D318013B1B78634510D137
:104300003900280000F01EFB00280AD11221164BAC
:10431000164A1748FF3101F0DDF823698B4215D0AA
:1043200000206368BFF35F8F00221A6086F3108855
:10433000F8BD23698B4210D00B0ADBB29C46002FDC
:1043400009D0874207D8FF230B40D2E70020226123
:10435000E7E7FFF7A5FCFFF7E5FC8521054B034ADE
:104360000348490001F0B6F8A83C0210FC3C0210DA
:10437000D03A0210843C0210F0B5C64600B50400E5
:104380000D00FBF788FF00284ED106267642F7176E
:1043900036196F41AF4214D90026002700F01AFFEA
:1043A00002000B1E13DB30003900801A99410029EE
:1043B00011DC0ED02900200000F082FF80BCB8463E
:1043C000F0BDAF4201D1A642E6D8002FE6DAFFF7F2
:1043D00059FC0028EED0174B5B68002B27D030002B
:1043E0003900FFF741FD0028E4DB00239846BC4676
:1043F000114A124F7B6A9C4504D8B96AB142D9D29E
:104400009C45D7D11168EFF3108072B60B68002B72
:10441000FCD0BFF35F8F1368BFF35F8F4146196015
:1044200080F3108820BFE5E7054801F0F9F8FFF7B1
:1044300087FCC046801500200C4500200040054048
:10444000AC3C0210FA2270B500239200002101F06A
:10445000EFFD04000D0000F0BDFE02000B1E0DDBA1
:1044600020002900801859418B4207D801D182428F
:1044700004D8002902DBFFF77FFF70BDFFF702FCC5
:10448000F8B5184D0C006B680700002B27D0FFF71C
:10449000EBFC011E09DC144A0020536A9C4203D83D
:1044A000926A0130BA4215D3F8BD20BF6B68002B69
:1044B00015D02800FFF7F8FE0B4B00205A6A9442F3
:1044C000F2D89B6A0130BB42EED2A41A631E9C4113
:1044D000E0B2E9E7E31A5A1E9341D8B2E4E7FFF7E6
:1044E0002FFCC0468015002000400540682110B513
:1044F000024B034A034800F0EDFFC046183B021090
:10450000D43E0210343B021070B5002919D0057B4F
:10451000A94216D84B0004685B18033BE318002A35
:1045200017D091420FD0AA420BD850008018033800
:104530002418A1701978002901D11A7070BD61701A
:10454000FBE7FFF7D3FF7121054B064A064800F051
:10455000C1FF7021054B034A034800F0BBFFC04672
:104560009C3B0210C03E0210343B0210903B0210F4
:1045700070B583600023CCB2437301330D00047324
:1045800042608373C473012C10D90068421C01334C
:10459000DBB2137003329C42F9D1FF2129404B005A
:1045A0005B18C01800230338437070BD002C01D085
:1045B0000068F2E7FFF79AFFF8B505000C1E32D04D
:1045C000017B8C423FD8630002681B19033BD31860
:1045D0005E78002E27D08E4235D8710089190339B4
:1045E00052180021577851705970320021008068AC
:1045F0006B689847002818D0320021002800FFF788
:1046000083FF39002800FFF7D7FF061E0BD03200CA
:104610002100A8686B68984700280DD0320021005F
:104620002800FFF771FF2000F8BD220031002800AC
:10463000FFF76AFF3400E4E7220031002800FFF7AB
:1046400063FF3400EFE7FFF751FFC046F0B54F4678
:10465000D646464604000D009146C0B5002900D15B
:10466000A1E0007B814200D98FE04B005B182268FB
:10467000033BD11898464B78002B00D08DE08B7807
:104680009C46002B00D082E00E78002E66D0864239
:1046900000D97AE073009B19033BD3185F78002F91
:1046A00044D0B84200D270E07900C91903395218D9
:1046B00051788A466146517059703A003100A068BD
:1046C00063689847002851D03A0031002000FFF776
:1046D0001BFF370051462000FFF76EFF061E0BD070
:1046E00032003900A06863689847002846D032003D
:1046F00039002000FFF708FF4B46207B002B1DD11F
:104700003E00B04241D3720023689219033A9B18CD
:1047100000229A70854238D8226800234244300033
:104720005370E0BCBA46B146A846F0BD4A46002ADE
:10473000EED0E17B002905D1E573E2E7E17B0029BA
:104740001AD03E00884220D323684A0052189B1892
:10475000033B5D70E573002EDCD0D2E74B46002BA7
:10476000DBD0E17B0029EDD1E573D6E732003900DB
:104770002000FFF7C9FEADE7E573C1E73A0031005D
:104780002000FFF7C1FE3700B6E7FFF7AFFE3B2181
:10479000084B094A094800F09DFE3A21084B064A99
:1047A000064800F097FE3821064B034A034800F004
:1047B00091FEC046483E0210AC3E0210D83D0210A9
:1047C000203E0210D03D0210F0B54F464646D64678
:1047D000C0B5467B04008946002E00D1A2E0017BD3
:1047E0008E4200D990E077000368BF19033FDA19C1
:1047F0005078002800D08FE090788446002800D0C0
:1048000084E01578002D65D0A94200D27CE06A00D2
:10481000501903381818924642789046002A47D01B
:10482000914200D270E052004244033A9B185A78F9
:104830002900924662465A704270A06842466368F8
:10484000984700284ED0424629002000FFF75CFE22
:10485000A84651462000FFF7AFFE051E4AD02A00A9
:104860004146A06863689847002846D02A0045461C
:1048700041462000FFF748FE217B4B46002B1AD112
:10488000A94241D36A0092462368524652199A18A7
:104890000023033A93708E4236D823680022DB1936
:1048A00030005A706573E0BCBA46B146A846F0BD08
:1048B0004A46002AE9D0E27B002A19D0914223D34C
:1048C0002368500082189B18033B5E70E673002D2E
:1048D000E1D0D5E74A46002AE0D0E27B002AEDD1BC
:1048E000E673DBE72A0041462000FFF70DFEB0E744
:1048F000E673C5E74546217BBFE729004246200015
:10490000FFF702FE217BB8E7FFF7F0FD3B21084BE4
:10491000084A094800F0DEFD3A21084B054A0648DE
:1049200000F0D8FD3821064B024A034800F0D2FDC2
:10493000483E0210AC3E0210D83D0210203E02104C
:10494000D03D0210F8B50500002946D0437B8B42CC
:104950005ED0007B814200D970E04E002C68761852
:10496000033EA619B278002A37D0824266D8530097
:104970009B18033BE25CE7188A4232D0002A02D13E
:1049800050E0002A54D082424CD853009B18033B7D
:10499000E3185A788A42F4D172785A7000230122BF
:1049A000B37073702800FFF751FE6E7B04008642DF
:1049B00046D0002E0ED0002811D022003100A86869
:1049C0006B68984700280FD0220031002800FFF7BD
:1049D0009BFD340001206C7300E00020F8BD340022
:1049E000F8E773783B70D9E72A7B944226D86300B6
:1049F00029681B19033BCB1896421FD872009219E5
:104A0000033A89188C701A78002A08D11E70E1E7E1
:104A100001221900FFF71AFE68730120DEE74A70D1
:104A20001E70D7E76821094B094A0A4800F052FD79
:104A30006721094B094A0A4800F04CFDFFF756FD73
:104A40006D21084B054A064800F044FD183B021052
:104A5000D43E0210343B02106C3E0210943E021011
:104A6000D83D0210743E0210094A10B59446402405
:104A7000830063441A68C00062408034144080227E
:104A8000520113431C60034B9C466044416010BDBF
:104A900004C0014000400140074B80009C46604438
:104AA0000368C90092000A435A400C231A4080232D
:104AB0005B0103431A60704704C001400123D02208
:104AC0008340120693629361094A40219446830011
:104AD00063441A68C0004A4080311140802252016C
:104AE00013431960034B9C460523604443607047A1
:104AF00004C0014000400140EFF3108072B6034A49
:104B00001368002BFCD0BFF35F8F70472C0100D0DF
:104B1000BFF35F8F0022024B1A6080F3108870474A
:104B20002C0100D0CB08C25C072301200B40984029
:104B30001040431E9841C0B27047C04670B5EFF3B5
:104B4000108C72B60D4D2B68002BFCD0BFF35F8F1D
:104B50000724CB08C618C05C01230C40A3401C00EE
:104B60000440034207D118433070BFF35F8F2C60BD
:104B70008CF3108870BD100000F052FD2C0100D0A5
:104B8000F8B54746CE46884680B5EFF3108C72B62E
:104B9000214D2C68002CFCD0BFF35F8F9A422CD89B
:104BA000D4080727055D061901241740BC402C4294
:104BB0001FD007210127894609E0D408055D0619A1
:104BC0004C4639001440A1400C00294211D001325A
:104BD0009342F2D201204042BFF35F8F00220E4B7E
:104BE0001A608CF3108800280FDBC0BCB946B046B1
:104BF000F8BD254310003570EEE7BFF35F8F00234B
:104C00002B608CF31088012040424346002BECD0EF
:104C1000089800F005FDC0462C0100D070B5EFF3F8
:104C2000108C72B60E4C2368002BFCD0BFF35F8F44
:104C3000CB08C25CC51807231940063B8B401342C2
:104C400008D09A432A70BFF35F8F002323608CF350
:104C5000108870BD3321034B034A044800F03AFC2E
:104C60002C0100D0E03E0210543F0210003F021021
:104C70000021044B044ABFF35F8F02C39342FAD171
:104C80007047C046000100D0800100D0044A10786F
:104C9000431CDBB2172B00D9102313707047C0469A
:104CA000A815002010B5064B064C82B001000093F9
:104CB00018221F232000FFF763FF02B010BDC0467B
:104CC000643F021060420020A72110B5024B034A46
:104CD000034800F0FFFBC046803F02101441021061
:104CE000983F0210992110B5024B034A034800F087
:104CF000F1FBC046E83F021008410210983F021045
:104D000001238340002904D0034A1360034A13603F
:104D10007047034A1360FBE780E200E000E100E037
:104D200080E100E001228240034B1B6813405A1EC1
:104D30009341D8B27047C04600E100E0024B10300A
:104D40009B688000C058704700ED00E010B5EFF39D
:104D5000108C72B6114A1368002BFCD0BFF35F8F22
:104D60000F4B10309B6880001B580E4A934201D0B5
:104D700099420CD10A4B9B681950BFF35F8FBFF368
:104D80005F8F0022054B1A608CF3108810BD7C21C8
:104D9000054B064A064800F09DFBC046240100D0A2
:104DA00000ED00E0CD010010184002102441021077
:104DB000983F0210F0B5DE4657464E464546E0B5F0
:104DC0000C0083B0EFF3108A72B66A4A1368002BA6
:104DD000FCD0BFF35F8F1022914681444A46664B58
:104DE00096009B689D59654B98469D4205D0A5420B
:104DF00016D0634FEB1B2F2B14D95F4B9B689D5133
:104E0000BFF35F8FBFF35F8F00225A4B1A608AF3A4
:104E1000108803B0F0BCBB46B246A946A046F0BD20
:104E20001D00EAE7012383409B465A46554B1B6809
:104E30001A4001925A46544B1A60BFF35F8FFBF73A
:104E40002AFA002802D0814500D082E001232A00FE
:104E50009A4393689C4208D172E04B005B189B0018
:104E6000FB189968A1420BD01A000621515600295F
:104E7000F3DA6021454B464A4648FF3100F02AFBF1
:104E800006241C57002C3CDB620011198900914656
:104E90007A1890689860D079D87106201056987169
:104EA00000284ADB043188469188181DCA0A1C2A4A
:104EB00058D14A05121504324244BA18121A36481B
:104EC000111F844635486244824249D80A05E021D0
:104ED000520D09020A439A804B461819304B800044
:104EE0001A78381882711C70019B002B05D05A4625
:104EF0002C4B1A60234B1A607FE75A46224B1A60EC
:104F00007BE700280DD1FF21917127499180244929
:104F10000A789A71254ADB1B5B415A43120D0A70CD
:104F2000E2E7234AD21A083A5108120B1CD1214A4F
:104F30009A80214A0A43DA80D6E7BD221202CAE7E4
:104F4000062414571300002C9EDA0028E9D14546A8
:104F5000DDE72C21194B0E4A0E48FF3100F0BAFA5A
:104F6000FFF7C0FEFFF7B0FEA121154B154A094817
:104F700000F0B0FA240100D000ED00E0CD010010F7
:104F8000AC15002000E100E080E100E08440021068
:104F9000F4400210983F0210FC070000FE0F0000D2
:104FA0007645002080E200E000BDFFFFAAAA0000D5
:104FB000E615002000F0FFFF00F8FFFF5040021050
:104FC00074400210DC400210F8B50126314C064353
:104FD0000500331B2F2B55D8FBF75DF900284AD06D
:104FE000EFF3108C72B62C4A1368002BFCD0BFF381
:104FF0005F8F2A492A008F68294B121B5241534365
:105000001B0D5AB28300F858B04217D00623E3565E
:10501000934222D01223E356934228D01E23E35614
:10502000934226D02A23E3560321934216D0CC2163
:105030001C4B1D4A1D48490000F04CFA89681C4869
:10504000C8501C4B19781A70A971BFF35F8F0022EA
:10505000114B1A608CF31088F8BD00214B005B18CF
:10506000FF219B00E318997113499980E9E7012119
:10507000F4E70221F2E78821104B0B4A0B48FF317D
:1050800000F028FAC2210E4B074A0848490000F0F8
:1050900021FAC046AC150020240100D000ED00E04C
:1050A000AAAA00006C3E0210C0400210983F0210F5
:1050B000CD0100107645002000BDFFFFB440021076
:1050C0008C400210054B064A1360064A1360536079
:1050D0009360D360136153619361704780808080D7
:1050E00000E400E004E400E0F0B5D6464F46464652
:1050F000C0B5EFF305823F23134018001038EFF3DB
:10510000108C72B620490A68002AFCD0BFF35F8F6A
:105110000122170087401D4C1600A24667631C4CF5
:105120002578A0462C00C4402640224209D1BFF376
:105130005F8F0E608CF31088E0BCBA46B146A8467B
:10514000F0BD5246566A134A8400A25896420ED3C6
:105150004246114BBD43E3581570BFF35F8F0022E9
:105160000A608CF31088002BE6D09847E4E70B4ADE
:105170009B00904643441A681A60BFF35F8F002378
:105180000B608CF31088D7E7280100D00040054061
:10519000774500205045002050420020D03F054078
:1051A0003F2110B5024B034A034800F093F9C04673
:1051B000CC350210F84102102036021010B5034B16
:1051C00001001800024AFFF7B9FC10BD7545002028
:1051D00040410210034B596A0A00986A596A8A4290
:1051E000FAD170470040054070B504000D00134A25
:1051F000536A1900966A536A8B42FAD1300019003B
:1052000024184D41AB4201D9FFF7CAFFAB4211D080
:10521000002DF9DB2B0009494A6A9342FCD89A42D7
:1052200007D1064A02E0516A8B4202D1916A8C4250
:10523000F9D870BDA642E7D8EAE7C046004005406D
:105240001D4B70B598420BD84201121A92001018EB
:105250001A4AC000916A936A5B1A9842FBD870BDE3
:10526000FA2200239200002100F0E2FE04000D006B
:10527000124A536A1900966A536A8B42FAD1300077
:10528000190024184D41AB4214D811D0002D11DB68
:105290002B000A494A6A9342FCD89A42DFD1074A56
:1052A00002E0516A8B42DAD1916A8C42F9D8D6E792
:1052B000A642EBD9FFF774FF9BC4200000400540D5
:1052C000064A536A9942FCD807D1044B02E05A6A55
:1052D000914202D19A6A8242F9D370470040054058
:1052E00070B504000D00EFF3108672B61A4A136809
:1052F000002BFCD0BFF35F8F002D1BD02000FFF7E9
:105300001DFD164981420AD02000FFF71FFD012133
:105310002000FFF7F5FC0123A340114A1360114B55
:10532000A400E550BFF35F8F00220B4B1A6086F399
:10533000108870BD0121A1400A4BA200D5500A4B34
:1053400020001A788A4305491A70FFF733FD0021BF
:105350002000FFF7D5FCE5E7280100D0E950001058
:10536000386005405042002077450020F0B5D64611
:105370004F464646C0B5314C616A0D00A66A616A67
:10538000A942FAD194461D008B4208D805D00120CD
:10539000E0BCBA46B146A846F0BDB242F7D9EFF339
:1053A000108972B6264C21680029FCD0BFF35F8FAC
:1053B0000124244F844039780E0026438846F1B2F8
:1053C00039708A46061D1D49B6004C6372501E4A4C
:1053D0008600B3500B6A23420BD10B6C0020234292
:1053E00025D0BFF35F8F0022154B1A6089F3108818
:1053F000CEE74B6A1A008E6A4B6A9342FAD19D42FD
:1054000011D801D1B4450ED8C2450ED00B4B1F2286
:105410001C625C630123024093400C4A012013602C
:1054200043463B70DDE70020DBE70120D9E7C121DF
:10543000074B084A084800F04DF8C04600400540B8
:10544000280100D0774500205045002080E200E090
:1054500064410210DC41021088410210EFF3108C0D
:1054600072B60A490B68002BFCD0BFF35F8F012393
:105470008340074A0748136202789A430270BFF3D9
:105480005F8F00230B608CF310887047280100D0D9
:10549000004005407745002000BEFDE7094A0300B3
:1054A0001068002805D00849C3188B4207D813603C
:1054B000704706480449C31810608B42F7D9012091
:1054C0004042F5E7E8440020000004207845002031
:1054D00000BEFDE730B50D000400190083B0002ABE
:1054E00009D0064B0192009322002B00044801F0E2
:1054F000B7FB00BEFDE7034B1A00F3E710420210B2
:10550000204202101C420210334B344A70B51A601C
:10551000334A344B34491A6014008B689C43FBD1E6
:10552000324D334EB54208D2013E761BB60808CD47
:10553000984723000134B342F9D100F089F82D4A8D
:10554000284B1A60284A9368DB43DB01DD09002BF6
:10555000F9D14022284B294C294E9A675A671A677D
:10556000DA66B4420AD22368002B27D0012B2CD153
:1055700020000834FEF704FBB442F4D3214C224E41
:10558000C0222000B16801F029F9B460FAF783FE67
:10559000002818D1FFF76CFBFFF794FDFEF752FED1
:1055A0001A4C1B4EB44208D2013E361BB60808CC3A
:1055B00098472B0001359E42F9D170BD2000FEF7BF
:1055C000D1FA0834CDE700BEE4E78321114B124A3B
:1055D0001248FFF77FFFC04600E00040BFCDFBFE52
:1055E000FE7F3C0000F0004000C00040081F00208B
:1055F000181F0020FFFFFF0100F00140001F0020E6
:10560000081F00200000002000ED00E0181F00200F
:10561000E01F002050420210D442021070420210DB
:105620000FB400B5084883B001F0F0F9049B002BDB
:1056300007D005A91800019101F0A8FA034801F06C
:10564000E5F900BEFDE7C046C4420210104F02104B
:1056500010B50C2082B000F0E9F90FF057F80028DF
:105660000ED0854B854A1A605A609A60DA601A61DA
:105670005A619A61DA611A62814A5A6202B010BDB7
:10568000804CA06700F01EFA01227F4B1A60636C09
:10569000012BFCD103227D4B1A607A4A936B012BBC
:1056A000FCD1013301217A4A7A480093043300F097
:1056B0002DF90523784A00930121784800F026F956
:1056C000774B5A68FF2A02D8802252005A60802203
:1056D0006E4B694C12011A602169002905D060697E
:1056E00000F066FA01300138FDD1E0226C4B6D48C4
:1056F00019680A40026002221968514001320A40CA
:10570000042102609A681142FCD08021664A090196
:105710001160802252005A60644B2361644B5968C7
:10572000FF2900D85A6003220121574B1A60604AB2
:1057300093681942FCD0E023106803405D48036081
:10574000126803234A4002211340594A03609368B8
:105750001942FCD08021584B090119608021574B18
:10576000490051606361564B5A68FF2A00D859605E
:105770008022544B12011A60E169002905D060694A
:1057800000F016FA01300138FDD1E0234C4A1168CF
:105790000B404D490B6080214C4B09011960802161
:1057A000364B49005160E361494B5A68FF2A00D8E3
:1057B00059608022474B12011A60216A002905D0E6
:1057C000606900F0F5F901300138FDD1E023404A6D
:1057D00011680B4040490B608021404B0901196062
:1057E00080235B0053608022244BD20223623C4B17
:1057F0005968914200D25A6080223A4B12011A60D5
:10580000616A002905D0606900F0D2F901300138E1
:10581000FDD1E023324A11680B4033490B608021EF
:10582000324B090119608023DB025360144B636221
:105830002F4B5A68FF2A02D8802252005A608022D9
:105840002C4B12011A60A169002905D0606900F093
:10585000AFF901300138FDD1E023254A11680B4032
:1058600025490B608021254B0901196080235B00CD
:105870005360124BA36101E764420020006CDC021C
:105880001BB70000008000403CB0004030B000403A
:10589000002F685900800240008C864700C00240FB
:1058A000308000403090004030A00040001BB70026
:1058B0003C8000403C9000403CA0004040597307B1
:1058C0005480004054B000405490004054A0004028
:1058D0006080004060B000406090004060A00040E8
:1058E0006C8000406CB000406C9000406CA00040A8
:1058F0004880004048B000404890004048A0004028
:10590000014B8000C058704764420020F8B5170072
:1059100004000C201D000E0000F04AF9374BFA1865
:10592000374B9A4263D843011B1A9901C91AC9001F
:1059300009188901380000F03BF902009823103A59
:105940005B009A424DD86B1E062B3ED8069B013B4E
:10595000062B3AD8069B9D423DD31F0323682D0496
:105960003D43002B20DB274B2749E3185A42534184
:105970008022520194461B03244A63441360244A44
:1059800013601F008A689743FBD1C023221D9B012F
:10599000134321222660A0601A602268002AFCDAE4
:1059A0000822E5601A60F8BD3F2322681340B34225
:1059B000D9D1A3681B051B0D8342D4D1EE22E36825
:1059C000D2021340AB42CED1EDE71C21114B124A5B
:1059D0001248FFF77FFD2221114B0F4A0F48FFF7B6
:1059E00079FD19210F4B0C4A0C48FFF773FD11216B
:1059F0000D4B094A0948FFF76DFDC04680E84BD3BF
:105A000080F8A9320040FDBF00C0004000E0004027
:105A100000F00040B043021014440210444302104E
:105A2000FC43021094430210E44202108023024A15
:105A30009B000343D362704700800540194B02006E
:105A4000194810B5D8618020184BC0051860184C53
:105A50001848046000290AD0E021174BC9041960D6
:105A6000002A09D18022144B12061A6010BDE021D1
:105A7000C9041960002AF5D053019B1A98008023AD
:105A8000801800015B04984208D20C4B18608022F9
:105A9000044BD2055860084B1A60E7E7074B0848EB
:105AA0001860F4E7008005402131B76A00B0054076
:105AB000FCFF01000820014000A00540EC4400204C
:105AC000FFFFFF00AA23064A1B0113602F2305498D
:105AD000D360054B19605368002BFCDA7047C04651
