:020000041000EA
:1000000000B5324B212058609868022188439860DF
:10001000D860186158612E4B002199600221596106
:100020000121F02299502B49196001219960352056
:1000300000F044F80222904214D00621196600F024
:1000400034F8196E01211966002018661A6600F04E
:100050002CF8196E196E196E052000F02FF8012189
:100060000842F9D1002199601B49196000215960AB
:100070001A491B48016001219960EB211966A021F2
:10008000196600F012F800219960164914480160C1
:100090000121996001BC002800D000471248134993
:1000A000086003C880F30888084703B5996A0420EC
:1000B0000142FBD001200142F8D103BD02B5186610
:1000C0001866FFF7F2FF186E186E02BD00000240BE
:1000D000000000180000070000035F00212200005C
:1000E000F4000018222000A00001001008ED00E03C
:1000F00000000000000000000000000074B24E7A12
:100100000020042027020010C3010010C5010010C8
:10011000C1010010C1010010C1010010C101001097
:10012000C1010010C1010010C1010010C701001081
:10013000C1010010C1010010C9010010CB01001065
:10014000CD010010CD010010CD010010CD01001037
:10015000CD010010CD010010CD010010CD01001027
:10016000CD010010CD010010CD010010CD01001017
:10017000CD010010CD010010CD010010CD01001007
:10018000CD010010CD010010CD010010CD010010F7
:10019000CD010010CD010010CD010010CD010010E7
:1001A000CD010010CD010010CD010010CD010010D7
:1001B000CD010010CD010010CD010010CD010010C7
:1001C00000BE00BE00BE00BE00BE00BE00F063F870
:1001D000103800BEF2EB8871E47D0010047E001040
:1001E0006402001090A31AE706005250ABB36053AC
:1001F0007478001006005250861C030284780010A8
:10020000060052505422A29D9078001005005250D2
:10021000DE65F468FC89001000202149086006C8EA
:1002200081F3088810471F48006800282FD10DA4CB
:100230000ECC002902D000F012F8F9E71A491B4A47
:10024000002000E001C19142FCD1194988471949B9
:1002500088471949884700BEFDE701C901C29A4293
:10026000FBD37047047E0010C0000020B80C0020B3
:10027000FC8900100000042000000420FC8900100C
:1002800000100420001004200000000070470B48FC
:1002900005F072F90047EFF30580C0B27047000027
:1002A00008ED00E0000000D0B80C0020B81D0020D0
:1002B000413A0010C9060010653B00105756000077
:1002C000F8B5C04606480749091A8B10C90FC91866
:1002D00010B5491003D0044B002B00D0984710BD37
:1002E000B80C0020B80C002000000000054B10B531
:1002F000002B03D00449054800E000BFFFF7E2FFF0
:1003000010BDC04600000000481D00207877001096
:100310007047C0460022014B1A707047B31D002081
:100320004B790020FF2B0BD18B79002B08D1CB7997
:10033000012B05D1082A03D9024B8A7809301A709B
:100340007047C046B31D00200120704770B50029DA
:1003500015D115495379107909781B020343002000
:10036000994200D070BD5378012B0AD0022BF9D1ED
:1003700000206422002103F0C9FD0120F2E70120E2
:10038000F0E79478D278050012021443D20502D522
:10039000620A93401D00054805F0EEF87F21030036
:1003A000214028009847C046B31D00205542000058
:1003B0000123037000487047787700104B780A7863
:1003C0001B0213438A7810B512041A43CB781B061C
:1003D00013439622D200934200D010BD034805F08B
:1003E000CBF80021030008009847C04655420000A2
:1003F00070B5184C82B006000D00200001A907F06E
:10040000A3F9002808D1D0231B06019A1B689A4241
:100410001CD0200007F0A8F9002001F091F9002875
:1004200007D103256D42200007F076F9280002B0BD
:1004300070BD002001F09CF90028F2D02A003100A4
:10044000002001F0A1F9051EEBD0ECE703256D4279
:10045000ECE7C046801D0020F0B5DE464E4657460C
:10046000C0B5344B82B081460D00180001A99B46EF
:1004700007F06AF9002808D1D0231B06019A1B68EF
:100480009A4250D0584607F06FF9002001F058F911
:10049000002840D00024002D42DD274B9A4612E070
:1004A0004B460020191901F0E3F9060000F0BCF9F1
:1004B000002001F0A1F903F0BBF953461860596020
:1004C000A419AC422CDA002001F0ECF92E1B02003A
:1004D000B04200DD3200002AE2D100F0A5F9002090
:1004E00001F08AF9002001F02BF9002818D0002033
:1004F00001F0D8F90028E4D103F09AF90027534617
:100500000E4E1A685B6892197B41994208D8D8D17F
:100510009042D6D904E000200021074B18605960B2
:10052000584607F0F9F802B0E0BCBB46B246A9460F
:10053000F0BDC046801D0020B80D002020A107009E
:1005400010B5044B187802F06DFEFA2000218000EF
:1005500010BDC046B41D002010B5024B187802F043
:1005600061FE10BDB41D002010B5074C0021200015
:1005700007F0EAF8002800D110BD00F055F920007E
:1005800007F0CAF8F8E7C046801D0020F0B5244BFC
:1005900085B01B7801F06EFB224802F05FF8012065
:1005A00003F0C6F8FF23204C20492070184002F0C9
:1005B0005FFE2078012102F023FE052002F03AFEC2
:1005C000041E0CD000220520194902F07BFE0121F7
:1005D000184806F057F80124200005B0F0BD02F0DD
:1005E000B9FA050003F024F9FA2206000F000023EF
:1005F000920092197B4199420ED80BD001210291B1
:10060000002101910C492800009102F0A7FA00286E
:10061000E2D0DCE79042F1D901225242D317EDE754
:10062000007E0010801D0020B41D00206905001010
:10063000590500108803002041050010004870474C
:100640003078001000487047DC77001070B5040067
:1006500017480378002B21D0002C06D1154B1648E3
:100660004380063BFF3B038070BD052C1DD8134B18
:100670001148A400E558811C002304E001330A80DE
:100680000231132B0ED0EA5CDCB2002AF6D1C02373
:100690000134E4B264009B002343E4E7112106F037
:1006A000F1F8D9E7CA239B00DDE70020DCE7C0466C
:1006B000981D002009040000FC1800204478001058
:1006C00010B505F0F7FD10BD10B501F0A3FF02490C
:1006D000024801F021FFFEE7D40E0020C00E0020EA
:1006E00010B503F0A5F8002905D0FA2200239200E6
:1006F00004F0DEFF10BDFA21890004F097FFF9E74E
:1007000010B5054801F098FF044801F09BFD04482E
:1007100001F0E8FD10BDC046E8120020C00E002028
:10072000D40E0020024B5878431E9841C0B2704747
:1007300064160020024B18784007C00F7047C0466F
:1007400064160020014B18787047C046AF1D00208A
:10075000F8B54746CE4680B5294F05003B78002BBB
:1007600004D00120C0BCB946B046F8BD53220021D8
:10077000244805F0ABFD244C200001F06FFF234B13
:100780001C60234C20001C3001F058FF200001F0B9
:10079000B9FC204B204E1C60204B9846002B04D007
:1007A0003000FFF705FE1E4B1860424600243378E8
:1007B000002A1DD01B4A9046194A91469C4210D3EC
:1007C0001BD14346984701343378E4B2A342F5D2B3
:1007D000280006F029FA280006F00EFA01233B70E3
:1007E000BFE74B461A6863001B19DB009B58E9E71B
:1007F00001F064F83378002BEAD000231B68FFDE99
:10080000AF1D0020641600201C160020B816002022
:100810009C030020BC160020AE1D0020B103001078
:100820002C130020BD180010F0B5DE4657464E468A
:100830004546E0B58FB001F023FA002800D161E110
:10084000CA4BCB4E9B465D46CA4B0BAC0093CA4B82
:1008500001933768FA69EFF3108172B61368002BC1
:10086000FCD0BFF35F8F39623800210001F0C0FA7D
:10087000FA693B6ABFF35F8F0021116083F3108830
:10088000002800D13EE16378082BE2D89B00EB58AA
:100890009F466368002BDCD0A0689847D9E77F208B
:1008A0002179B64A084043009C46130063449846A9
:1008B000CF09B844424601233032D7789F43D770DE
:1008C000D77803339F43D770002800D121E14346F6
:1008D000AB4ADB7C002A06D0AA4A1278934200D2A7
:1008E000ABE19B1ADBB2002B00D00BE1A64FA36853
:1008F00062792078B847ACE7A04B01229A461B7872
:10090000012113435246137033235046D25C57469D
:100910008A43C254C25C04208243FA540133FA5C15
:100920008A43FA54FA5C8243FA54237800209B46A7
:1009300000F078FE602223791A40602A0DD0402A08
:1009400000D103E1DB06DB0E012B00D180E1022B9D
:1009500000D133E1002B00D122E12078002106F004
:10096000A7FA8021207806F0A3FA72E7834B1B7860
:10097000DB0700D46DE7854B002B00D169E700E071
:1009800000BF66E77D4A1378DB0700D461E7804B40
:10099000002B00D15DE710780007C00F00E000BF1A
:1009A00057E7784F764A00213B78002A00D1B6E01D
:1009B000714A91463A000F0090469F4208D39F42E9
:1009C00000D0AFE00137FFB29F4200D941E7F6D235
:1009D0004A4611687A00D219D2008A185269002A50
:1009E000F0D020789047434601371B78FFB29F42F2
:1009F000E3D92EE72378634F614A994600213B787B
:100A0000002A00D19AE0634AB446924638000F00AB
:100A10002900594A4E46554693468A468046E14645
:100A2000BB425FD800D086E02B0030009847434699
:100A300001371B78FFB2BB42F2D24E4655464F4FAC
:100A400053220021380005F041FC1022FF21F81C40
:100A500005F03CFC38002022FF21133005F036FC65
:100A600000F0D6FD4C4B002B00D1F2E600E000BFB9
:100A7000EFE62378434F424A994600213B78002A0B
:100A800053D0444AB446924638000F0029003A4AEF
:100A90004E46554693468A468046E1469F4229D3B4
:100AA00049D12B0030009847434601371B78FFB2ED
:100AB000BB42F3D24E465546304F532200213800F8
:100AC00005F004FC1022FF21F81C05F0FFFB3800A4
:100AD0002022FF21133005F0F9FB00F099FD237966
:100AE000BB70B6E65B461A687B00DB19DB00D318E7
:100AF0005B689AE75B461A687B00DB19DB00D3185A
:100B00005B68CFE70FB0F0BCBB46B246A946A04633
:100B1000F0BDA3686279207800F098FD99E6002B7B
:100B200000D196E600235B69FFDE484600F004FF33
:100B30003B78002BC0D000235B68FFDE484600F006
:100B4000FBFE3B78002B00D179E7F4E7134800283F
:100B500000D102E700F066FD002158460CAA00E033
:100B600000BF002800D074E6F7E6C046C078001049
:100B7000BC160020651900102C13002064160020FC
:100B8000B1030010AE1D00202D1B0010000000005E
:100B900000000000391900100000000000000000F3
:100BA000202A00D189E0002A00D0D6E66379092BFB
:100BB00000D9D2E6C64A9B00D3589F467023217ABB
:100BC0000B4200D0C9E60F330B405B009C465046F9
:100BD000CF096044C019C07C02938446BD480028F8
:100BE00008D0BD480078844500D289E06346181AD1
:100BF000C3B29C46604600287CD1002A00D00CE19C
:100C0000B64B98460220627991468243012A00D170
:100C100007E14A46002A00D09FE6029B0AAA5344F5
:100C2000DB193033DB7802329B07DB0F1380584629
:100C300002230CA900F096FC0BE6A94A58001268A2
:100C4000C318DB00D318002B00D15BE71F694EE609
:100C5000237A0F2B00D980E69E4A5344DB78002A82
:100C600005D09D4A1278934265D39B1ADBB2002BC4
:100C700000D072E69B48994F00F0D4FC0021584602
:100C8000FB680CAA9847002800D0E2E56022170014
:100C900023791F401A4200D05FE663790A3B012B9B
:100CA00000D95AE600F0BEFC63790A2B00D1E7E0D8
:100CB00058460CA900F040FCCBE5237A0F2B00D955
:100CC0004BE6844A5344DB78002A06D0824A1278E5
:100CD000934200D2C9E09B1ADBB2002B00D03CE665
:100CE00080487E4F00F09EFC00215846FB680CAA0D
:100CF000984736E7002A00D02FE60023984681E780
:100D000063465B009846E0444346DB0098467448DF
:100D100000688044002A00D174E74346002B00D1CC
:100D20001BE6D86800F07EFC434600215846DB688D
:100D30000CAA984715E76A4A59001768CB18DB00D8
:100D4000FF18002F00D108E6F86895E7E388012B2B
:100D500000D002E608223B78934352461370A7E77F
:100D6000022039780AAB9A1C8B068908DB0F0140F8
:100D70000B435BE7A27905927B789A4207D07B7898
:100D8000002B00D036E1059B002B00D0B0E053468D
:100D9000059A58460CA95A7000F0CEFB59E57B78AD
:100DA0000AAA02321370584601230CA900F0DAFB9C
:100DB0004FE5E088030AC0B20F2B00D9CDE54A49C0
:100DC0009A008A5897460CA800F032FC5846A17940
:100DD00005F018FF02223B7813433B7039E5E388A6
:100DE000012B00D0B9E508223B781343B5E7022B6D
:100DF00000D1A0E13D4B002B00D1AEE500E000BFEB
:100E00000200002A00D1A8E5D37891781B020B4399
:100E100058460CA900F0A6FBA3E6304B3148984693
:100E200080E7E288002A09D14B46012B3DD0029B86
:100E30005344DF193037FB789B072AD54346002BF4
:100E400000D106E5D86800F0EDFB43460CAADB684C
:100E5000002158469847002000F0E4FB3423524616
:100E6000D35CDB0700D5F4E422E71D4A590017687C
:100E7000CB18DB00FF18002F00D16EE5F86831E7D2
:100E80000AAB9A1C584601230CA9177000F06AFBA4
:100E9000DFE4584606F00CF80222FB7813430122E7
:100EA000FB70FB781343FB70C8E7029B5344DF19C8
:100EB0003037FB789B07C1D5584606F015F802225B
:100EC000FB7893434A46FB70FB789343FB70B5E78E
:100ED000E4780010B1030010AE1D00204C79001022
:100EE0002C130020491A00100C790010000000009B
:100EF000581EC0B2FFF7A6FB002800D12DE54378AD
:100F00000793022B00D028E50121C379A9469A1145
:100F10005B110A400B4052011B01134352461278E9
:100F20002F318A4313435246137009239846804455
:100F30004746C37882781B021343C3180693804B3D
:100F4000029604937F4B08937F4B0993069BBB4209
:100F500000D8E7E001227B7803920B2B04D1FB78C9
:100F600003933B78FF187B78042B40D1069B089AAB
:100F7000DB1B9BB29846049B00261B78002A14D1E9
:100F80007BE0B34200D08AE0009B099D42463900D5
:100F900058469847082802D9434683420FD2049BFB
:100FA00001361B78F6B2B34221D3B342E9D9019A94
:100FB000730015689B19DB00ED18AB68E6E7A846DF
:100FC0000500039B012B00D1A0E0039B002B69D0FF
:100FD0000023B97805E0D6700133039ADBB293425F
:100FE00060D2CA18D2B25244D078FF28F3D04D460E
:100FF000029EB2E4584605F015FFBB78514A504FA7
:10100000029300213B78002A30D0504A0392504A84
:1010100091462A000D0090469D421FD300D08AE5DC
:10102000039B5846984701353B78EDB2AB42F3D26B
:10103000454653220021504605F048F953461022F8
:10104000D81CFF2105F042F950462022FF21133021
:1010500005F03CF95346029A9A7094E64B461A689A
:101060006B005B19DB00D3185B68DAE7584600F0C9
:1010700063FC3B78002BDCD05DE5424639005846E6
:1010800000F070FC0500082802D94346834246D28E
:10109000049B4D461B78029E002B00D15DE400238B
:1010A0009B68FFDE5046330039002A00133000F001
:1010B00027FE049B7F191B78B34200D346E796E7CF
:1010C000244B002B00D148E400E000BF02009BE667
:1010D000FFF7B4FA122302000CA9584600F042FAB6
:1010E0003FE51D4B002B00D137E400E000BF021E9E
:1010F00000D132E4584613780CA900F033FA30E5F9
:101100002189FFF7A3FA021EF4D126E44246134BCD
:1011100092689A4200D05BE7079B039358E70A4B1B
:1011200098464EE70E4B4D46029E002B00D12EE610
:1011300000E000BF2BE6FFF785FA020061E6C0463B
:10114000AE1D0020B10300104C79001039190010B9
:101150002C130020000000000000000065190010A2
:101160000000000030B587B005000C000C22002103
:10117000684605F0ABF86B461D705C70042C4FD0D0
:1011800009D8022C34D0032C19D13C4A13785B07C0
:1011900058D407B030BD052C11D1384A1378DB077D
:1011A000F7D5042113788B431370354B1C68E26923
:1011B000EFF3108172B61368002B09D1FBE7304BB7
:1011C0001C68E269EFF3108172B61368002BFCD043
:1011D000BFF35F8F21626946200000F0D5FEE2690F
:1011E000236ABFF35F8F0021116083F31088D0E77B
:1011F0000121224B1A788A431A701A780331A243CC
:101200001A7000225A701A788A431A701C4B1C6894
:10121000E269EFF3108172B61368002BD8D1FBE7B7
:10122000164A1378DB07B4D5042113780B431370E7
:10123000134B1C68E269EFF3108172B61368002B40
:10124000C6D1FBE70421137803A88B431370002158
:101250000C2205F03BF86B466A461D730523537359
:10126000074B1C68E269EFF3108172B61368002B1C
:10127000FCD0BFF35F8F216203A9ADE764160020A5
:10128000BC16002070B584B001AC06000D000C2225
:101290000021200005F01AF8012363700D4B257121
:1012A0001D682670EA69EFF3108372B61168002991
:1012B000FCD0BFF35F8F2B622100280000F064FE9A
:1012C000EA692B6ABFF35F8F0021116083F31088F6
:1012D00004B070BDBC160020002330B585B001AD50
:1012E0006B8028700633082202A86B7004F0F4FFAC
:1012F0000C4B1C68E269EFF3108372B61168002989
:10130000FCD0BFF35F8F23622900200000F03CFE79
:10131000E269236ABFF35F8F0021116083F31088B5
:1013200005B030BDBC160020F0B5C646804600B5FD
:1013300084B001AC0F0016000021082220001D001F
:1013400004F0C4FF43462370072363700F4B65719D
:101350001D682771A660EA69EFF3108372B6116801
:101360000029FCD0BFF35F8F2B622100280000F022
:101370000BFEEA692B6ABFF35F8F0021116083F3D4
:10138000108804B080BCB846F0BDC046BC16002032
:10139000F0B54646D6464F468046C0B50C0015000F
:1013A0001E00002A2ED070239946184B00279A461B
:1013B0006378052B0FD1E1788907890FB1420AD1F3
:1013C0004A46A3781A4206D153462000997800F085
:1013D0005BFC002805D10020E0BCBA46B146A84617
:1013E000F0BD2100404605F0A5FC0028F3D0A3780D
:1013F000DA09012A08D0089A137023780137E41813
:10140000AF42D5DB0120E7E7099AF5E76416002033
:10141000702270B58B7805000C001A4201D00020B4
:1014200070BD064B2000997800F02EFC0028F6D005
:101430002100280005F07EFCF2E7C046641600207B
:101440007F2270B5154B0A4052009C18C9096418D8
:101450003034E378DB07DD0F002B18D1E3785B072E
:1014600001D5280070BD01210D4E4942306806F0BB
:1014700073F9E378DB07DD0F002B0AD1E3785B0714
:1014800008D40422E37801251343E37002E0002529
:10149000E7E70025306806F03FF9E2E76416002030
:1014A000B816002070B50C0001210F4D4942286884
:1014B00006F052F97F210D4A21404900E4095318F2
:1014C0001B193033DA780024D20708D4DA785207AF
:1014D000D40F002A03DA0421DA788A43DA70286804
:1014E00006F01AF9200070BDB8160020641600201E
:1014F000F8B57F260F4D0E407600AC190700C809DD
:1015000024183034E5780020ED0700D5F8BD01251A
:10151000E0782843E070380005F0B8FC0028F5D1E9
:101520000122E3789343E370E37803329343E3705B
:10153000ECE7C0466416002070B5094C060008228E
:1015400020000D0004F0C8FE00238021E360A360AA
:101550002B783000994300220023FFF7C9FF70BDAC
:1015600008160020F8B5CE4647469046264E80B570
:101570008146082230000D001F0004F0ADFE4346F6
:10158000B3600023F381EC79AB7924021C43231C64
:10159000BC4200D93B1C9FB2B381002C12D0002F5B
:1015A0001CD04346002B2CD03B1C402F1BD89FB295
:1015B00033787F2B1CD80021144A3B004846FFF7A4
:1015C00097FF07E080212B780022994348460023AB
:1015D000FFF78EFFC0BCB946B046F8BD3178002297
:1015E000C909C901E9E740239FB233787F2BE2D9CB
:1015F000064C3A004146200004F06EFE8021220095
:10160000DBE70020E6E7C04608160020241600208D
:1016100010B514220021024804F058FE10BDC04647
:1016200008160020014B18617047C04608160020BC
:1016300010B5054C01000822200004F04DFE0023E7
:10164000A360E36010BDC0460816002070B5394C99
:101650001D0023780600DA09C9098A4213D0002048
:10166000002D00D070BD344B002B03D02100300082
:1016700005F052FB2369002B41D0220002213000EB
:1016800098470120EEE77F2B06D8A068002834D0C9
:101690002A002A4904F020FEE289A1685219E38851
:1016A00092B24919E281A160934214D03F2D12D920
:1016B000A389981A051C80B240282CD82078ADB296
:1016C0007F282AD800219A4232D01C4A2B003000B1
:1016D000FFF70EFFC6E72369002B05D0220001218A
:1016E0003000984700280CD08021237800229943AD
:1016F00030000023FFF7FCFEB4E70020B2E7012032
:10170000B0E70021300005F0D3FB3000802105F068
:10171000CFFB0120A6E74025D0E79A4207D0074C2F
:101720002A00200004F0D8FD80212200CEE780218D
:101730000022CBE708160020196D001024160020A7
:1017400010B50400FEF7EEFF002801D1002010BD07
:10175000FEF7F0FF0028F9D1B62292006243034B56
:1017600001309B181B791840F1E7C0463013002068
:10177000B6239B00584310B5024B1030C01800F040
:1017800011FB10BD30130020F0B5B625AD00454368
:101790002C00C646174F1034E41900B5200092B251
:1017A00000F074FB0600200000F014FB3F2803D873
:1017B000300080BCB846F0BD7B190020D97898462F
:1017C000FFF73EFE0028F3D0200000F003FB3F2887
:1017D0000AD996239B00EA184346D219D9780020EB
:1017E0004023FFF785FEE3E743460020D978FFF763
:1017F00059FEDDE730130020F8B50400FEF792FF34
:10180000002801D10020F8BDFEF794FF0028F9D18F
:10181000B6239B005C432500144E2C35AD192800DF
:1018200000F0C0FA0028EDD037190020B978FFF792
:1018300007FE0028E6D0A6239B009C466444A4191A
:1018400021002800402200F021FBB978051E08D0B5
:10185000030022000020FFF74BFE0028D2D0280012
:10186000D1E70020FFF71EFECCE7C0463013002072
:1018700070B5B624A4004443094B2C34E418050089
:1018800092B2200000F0BEFB0600200000F08AFAB1
:101890003F2801D8300070BD2800FFF7ADFFF9E701
:1018A00030130020B6239B00584310B5024B2C3058
:1018B000C01800F08FFA10BD30130020B622F0B52A
:1018C0001B4C83B000212000920004F0FFFCFF239A
:1018D0006371184B80260025E3800127082321002F
:1018E0002000760023733200278148310095073BA2
:1018F000103000F01BFA2100200049313200FF3186
:10190000012300972C3000F011FA92239B00E61877
:10191000300000F0A3FE94239B00A662E61830007E
:10192000656200F09BFE2664656403B0F0BDC046AE
:101930003013002000C2FFFF10B5094C0522002122
:10194000200004F0C3FC20002C34103000F0DAFB3F
:10195000200000F0D7FB0121200000F0F9FB10BDB2
:1019600030130020F0B54B79060083B0022B02D172
:101970008B79022B03D00025280003B0F0BD2F4F38
:10198000BB78002BF7D18B7809253B700C780C19AC
:101990006378242B0BD1082A02D80FE0AA420DD37A
:1019A0002378E418ED186378ADB2242BF6D0052B1C
:1019B00020D0042B02D163790A2B2ED0204C20009A
:1019C00000F008FA3F28D7D92600103E0020F17811
:1019D000FFF736FD0028CFD0200000F0FBF93F28AC
:1019E00016D992239B00E218F17840230020FFF7DC
:1019F0007FFDC1E721003000FFF70AFD0028BAD0C3
:101A0000A3787B702378ED18E4186378ADB2D0E743
:101A1000F1780020FFF746FDAEE70A4B27780193E7
:101A200001330093022202233000E119FFF7B0FCDA
:101A30000028A0D00E35ED19ADB2BFE7301300205D
:101A40004013002032130020F8B5602314001278F0
:101A5000050013400020202B12D12F4A63792779EB
:101A600016781B023B439E420AD16378222B27D073
:101A700007D8202B17D0212B02D100293DD00120DF
:101A8000F8BD232BFCD100293FD00229F7D1234BED
:101A9000002BF4D0E178A37809020020194300E07C
:101AA00000BF0120ECE7002927D00229E7D11C4B19
:101AB000002BE4D00020911DFEF780FC0120DFE721
:101AC000002922D00229DAD101252E00A378E4785A
:101AD000013924021C43147126402C32100071403D
:101AE00000F036FB0F4B002BC9D0620800203100FC
:101AF0002A4000E000BF0120C2E7072321002800A0
:101B0000094AFFF72FFD0120BAE721002800FFF75F
:101B100013FD0120B4E7C046301300200000000090
:101B2000BD0300100000000036130020F8B5574632
:101B30004E464546DE46E0B5494F8046FA780C00F1
:101B40001E008A4264D19AB296239B00FD1810238E
:101B50009B46BB442900584600F054FA414BD946F5
:101B6000002B18D07B79D946FF2B14D0002E12D031
:101B7000AA19924603E0013555450CD07B792A78A5
:101B80009A42F8D1484600F01DF90028F3D179793E
:101B900000E000BFEFE7344B002B04D0484600F0D4
:101BA00011F9002852D0484600F014F93F2834D8E3
:101BB0004B46103B9B78A34207D001242000F0BC89
:101BC000BB46B246A946A046F8BD284B002B02D022
:101BD000002000E000BF0020FFF70EFE0028ECD13F
:101BE000234D280000F0DEF80028E6D1002EE4D0D6
:101BF000B606E2D12C3D4046A978FFF721FC041E31
:101C0000DBD0002300224046A978FFF771FCD5E71E
:101C1000BB788B42D9D00024D0E74D46103D002040
:101C2000E978FFF70DFC002801D1AB78C3E74846FF
:101C300000F0D0F83F280CD99222920040230020D7
:101C4000E9784A44FFF754FCAB78B4E700E000BF02
:101C5000A9E70020E978FFF725FCAB78ABE7C046A1
:101C60003013002000000000000000000000000011
:101C70005C13002010B50020FEF76AFD10BDC046C1
:101C800010B5FEF75FFD10BD072210B5447903794A
:101C9000224012021A43C3789B079B0F022B05D0E8
:101CA000032B15D00020012B08D010BD02291CD019
:101CB0000020402393424041C0B2F6E702394B4234
:101CC00059410D4B9C46614491424041C0B2ECE702
:101CD00002394B425941F023002049429B001940F0
:101CE000403191424041C0B2DFE7044BD01843423B
:101CF0005841C0B2D9E7C046FF03000000FEFFFF15
:101D0000F0B5002A11D000247F274D78052D06D18B
:101D10003D008E7835406D00F6094519AB550D78BC
:101D20006419A4B24919A242EFD8F0BDF0B5C64675
:101D300000B5150006AA1E001378802204000F00CB
:101D40009846120295422AD84069002803D0012102
:101D5000494205F001FDA069002803D00121494254
:101D600005F0FAFC4346A5806D00ADB223726B1EF0
:101D7000A381002360696D42E3812760E68065816D
:101D80002382002801D005F0C7FCA06901240028A7
:101D900001D005F0C1FC200080BCB846F0BD002495
:101DA000F9E7C046C189028A8B1A9BB2914202D2DE
:101DB00042899B1A9BB28288101C9A4200D9181C37
:101DC00080B27047C389008A181A43425841C0B292
:101DD0007047C04610B5C489018A8388621A92B2DE
:101DE0008C4202D24189521A92B2981A80B210BD26
:101DF00070B5040080690E00002803D0012149421B
:101E000005F0AAFCE189228A88B28D1A93B2ADB29C
:101E1000914202D26289AD1AADB2A288AA4207D21B
:101E2000904225D261895118411A89B21500218248
:101E3000002D02D122E09B1A9BB29A42FBD9E28884
:101E4000216853433000C91804F046FA228A01255C
:101E5000531C9BB29A4214D9002362899B189BB2EF
:101E6000A0692382002801D005F056FC280070BD2F
:101E7000811AA58989B28D42D8D2D3E70025238A59
:101E80009BB2A2899A42EBD2E7E7C046F0B54F4633
:101E90004646D6460500806988469146C0B500286A
:101EA00003D00121494205F057FCEA892B8A91B2FF
:101EB000D61A9CB2B6B29A4202D26B89F61AB6B260
:101EC000AF88B74209D2B94251D26B89FB18CB1AFD
:101ED0009BB23E002B822C8AA4B2002E4DD04B46E2
:101EE000B14542D89EB2A74203D8E41BA4B2A74290
:101EF000FBD9EA882968914662433B1B9BB289184B
:101F00004A469E4224D953439BB21A0040469A4601
:101F100004F0E2F94B464046F71BE4195C4329689C
:101F2000A2B2504404F0D8F92A8A93199BB29A427B
:101F300017D96A899B189BB2A8692B82002801D007
:101F400005F0EAFB3000E0BCBA46B146A846F0BD59
:101F50007243404604F0C0F92A8A93199BB29A4210
:101F6000E7D8AA899A42E7D2E3E7331CBAE7CB1B4A
:101F7000AA899BB29A42ACD2A7E72B8AAA899BB2C4
:101F80009A42D9D2D5E7C046F8B5040040690E00A0
:101F9000002803D00121494205F0DEFBE289218AB5
:101FA00095B2531A9BB2914202D962899B1A9BB295
:101FB000A2889A4221D02B00954203D39B1A9BB250
:101FC0009A42FBD9E288206853433100C01804F0DC
:101FD00083F96B1C9BB29D420BD962899B189BB203
:101FE00060690127E381002801D005F095FB3800E6
:101FF000F8BDA2899A42F3D2EFE7277A002FDAD10F
:10200000F5E7C046F8B54E465746DE464546894692
:10201000E0B50600171E5BD04069002803D00121FF
:10202000494205F099FBF389318A9BB29846337A8D
:10203000B58889B2002B3BD143465A1A92B28845E3
:1020400002D27189521A92B2AA1A111C92B2BA42E1
:1020500051D8F3888FB27A1B9A4693B29B46444676
:10206000A84503D3641BA4B2AC42FBD253466343DE
:1020700030682D1BADB2C018AF422BD8524649462E
:102080007A4304F029F94346FB189BB298451BD8C4
:10209000B2899A4218D37069F381002801D005F003
:1020A0003BFB3800F0BCBB46B246A946A046F8BD93
:1020B000F3889A46AF4220D37F1B5F430023B94485
:1020C00088462F009B46CAE772899B189BB2E2E7BD
:1020D0000027E6E753465D43ADB22A00494604F0C7
:1020E000FBF8534629005C445C433068A2B2494483
:1020F00004F0F2F8C7E7391CABE77A1B93B29B46B2
:10210000ADE7C04610B504004069002803D00121A6
:10211000494205F021FBA069002803D00121494272
:1021200005F01AFB0023E3812382A38860695B002A
:102130009BB25A1E5B42A2816381002801D005F048
:10214000EBFAA069002801D005F0E6FA012010BDE5
:1021500070B5040040690D00002803D001214942F8
:1021600005F0FAFAA069002803D00121494205F0E0
:10217000F3FA60692572002801D005F0CDFAA06954
:10218000002801D005F0C8FA012070BD002070477A
:1021900001235B424360704703680C3B1B68C01817
:1021A00001235B42436070477047C0460368103BA1
:1021B0001B68C0187047C04610B50400FEF780FACF
:1021C000200010BD036810B5103B1B68C418200028
:1021D000FEF776FA200010BD436810B50400013305
:1021E00008D0002004F0F4FA60600130431E9841EA
:1021F000C0B210BD0120FCE770B51D0000230C002B
:10220000161E2B601BD043685A1C0AD00B702B681B
:10221000013E01332B6001235B4201344360002EF9
:102220000DD0A61906E0207029680134013129601B
:10223000B44204D0002004F0CBFA431CF3D10120B7
:1022400070BDC0460023C3600361054B1A004833CC
:102250008360012318325B42026043607047C046CE
:102260006479001010B5024800F0E6F910BDC046D0
:10227000EC120020002070477047C0467047C046EF
:102280007047C0460368103B1B68C0187047C046C3
:1022900010B504F00FFA10BD10B50400FEF710FAE7
:1022A000200010BD036810B5103B1B68C418200047
:1022B000FEF706FA200010BD70B51D0000232B604C
:1022C000002A0CD00C008E18207804F08BF92968B5
:1022D000013401312960B442F6D104F0EBF9012058
:1022E00070BDC04600238360C360034B1A0058339F
:1022F0001832026043607047B879001010B5024888
:1023000000F09AF910BDC046F012002010B5036825
:1023100082B05C69012201ABA04702B010BDC0468B
:102320008623F0B500260A6883B005005B00D35809
:102330000800009601A9019698472B680400010047
:102340005F6928006B46019AB847009BE65403B0CA
:10235000F0BDC04610B5024800F06EF910BDC04691
:10236000F412002010B584B06A460B00D3710368E4
:10237000D11D5C6A012203ABA04704B010BDC0466A
:102380000023F0B583B006000D00141E019305D1A3
:102390000FE0019BE41AED18002C0AD033682200EC
:1023A0005F6A2900300001ABB8470028F1D103B0C3
:1023B000F0BD0120FBE7C0460CB410B582B004AB01
:1023C00004CB04680193E469A04702B010BC08BCC8
:1023D00002B01847F0B5C64600B5076806003B6A6C
:1023E000080082B098460D0005F032F8104B04004A
:1023F0000200984518D100230193002806D111E06E
:10240000019BE41AED18002C0CD03768220029003B
:1024100030007F6A01ABB8470028F1D102B080BC20
:10242000B846F0BD0120F9E729003000C047F5E7C4
:1024300081230010F0B503680C001F6A0B6883B09D
:10244000DB6E060008009847236805001B6F20001C
:102450009847104B04009F4216D100230193002897
:1024600005D10FE0019BE41AED18002C0AD0336867
:1024700022005F6A2900300001ABB8470028F1D183
:1024800003B0F0BD0120FBE7020029003000B8478F
:10249000F6E7C04681230010F0B50C0011001A00C9
:1024A000D8230600206883B0C358200098473368BB
:1024B00020001F6A2368DB6E9847236805001B6FA6
:1024C000200098470F4B04009F4216D10023019330
:1024D000002805D10FE0019BE41AED18002C0AD06A
:1024E000336822005F6A2900300001ABB84700283A
:1024F000F1D103B0F0BD0120FBE70200290030005C
:10250000B847F6E78123001010B5024800F094F8B0
:1025100010BDC046F8120020F0B5DE4657464E46C4
:102520004546E0B5050087B030488B4604F040F9D9
:102530002F4804F03DF9FEF7D3F8D0231B06994647
:1025400080234A469B0453612A4B070098462A4B36
:102550005E460193294B44460393294B0293FA2389
:102560009B009A46FEF7BCF8C31B534508D94B465F
:102570001A6980239B041A4220D14A4607005361FE
:1025800000238022984605932B6821005B69280070
:102590009B46D20005ABD847002813D18021019873
:1025A000C90004F005F9FEF79BF8C31B5345E7D9B2
:1025B0004B461A6980239B041A42DED04A46070024
:1025C0009361DDE705990029CCDD43460398635408
:1025D00004F0EEF83368210030001B699847336837
:1025E00030001B6902999847BCE7C0461C7A00106E
:1025F000507A0010E40E00209C7A0010E47A00105B
:10260000F47A001010B5024800F016F810BDC0466C
:10261000FC12002010B504F0D7F8064800F00EF8C0
:10262000192000F0A3FDD02380221B0692045A62D9
:1026300010BDC046301900207047C04610B50400D8
:10264000012000F0CBFD044B9C46604480002060DC
:10265000BFF35F8F10BDC0464000003410B50400CA
:1026600000F0B0FD0100200000F014F8FF232371FA
:10267000BFF35F8F10BDC04610B5040000F0A2FD8F
:102680000100200000F006F8FF23A380BFF35F8F56
:1026900010BDC046024B9C466144890001607047F2
:1026A0004000003483680B4810B58446614462449E
:1026B0001201090159189B185C684A68012094426C
:1026C00001D802D00020C0B210BD1A680B689A422F
:1026D000F9D8F7E7FFFFFF0F0A4B1968EFF31080F7
:1026E00072B60A68002AFCD0BFF35F8F1B68BFF385
:1026F0005F8F00221A6080F3108840BF0020002105
:102700007047C0467C1D0020F8B5574645464E46EA
:10271000DE46E0B599460CAB1C780DAB1B78070084
:1027200090469A460568002C44D1AC7B002C3BD0E7
:10273000660029683619033E89194B78AB73002B64
:1027400000D1EB7300238B704B700B702E4BE21893
:10275000BB6812019B1842461A604A465A600A9AA0
:102760009A600B9ADA6000238B704B700B706B7B56
:102770009B46002B32D022005946A8686B689847C8
:1027800000281DD05B46584629685B005B448E19C3
:10279000033BB070CA18CB5C002B00D073705B4653
:1027A00014706B735C451AD0F0BCBB46B246A946A8
:1027B000A046F8BD660029683619033E8919C5E7A9
:1027C0005B465B002A685B44033BD3189C709119FD
:1027D000925D002A00D05A705B460B706C734246C3
:1027E0004B46387D01F09EF8051E02D05346002B63
:1027F00004D00E9B002BD7D01D70D5E72100386880
:1028000000F076FCF5E7C046FFFFFF0FF0B5DE46AF
:102810004E46574645460023E0B58DB00A936B4BB4
:102820008200D3580B90994600239B464B46079352
:1028300000F0FEFF079C06000F006268EFF31085B2
:1028400072B61368002BFCD022000794BFF35F8F91
:102850002468637B9946002B66D092685C4B904657
:102860004B441B01984443461A685B6810001900EA
:10287000801BB94100295EDD0B9801F053F800235D
:102880000026984600279A46079C6368BFF35F8F2F
:102890005A461A6085F310885346002B08D1002849
:1028A000C6D10DB0F0BCBB46B246A946A046F0BDAD
:1028B0000A9B414618024B461843D047089009919D
:1028C0006268EFF3108572B61368002BFCD0079492
:1028D000BFF35F8F0899099A002A47DB114303D0A1
:1028E000079B1B69002B5CD1079B1B68D97B0029C8
:1028F00006D01A684800411852184946033A5170E8
:102900004A46DA734B46079A013BD168CA5C0132EA
:10291000CA545B46079A13615368BFF35F8F5A46E8
:102920001A6085F3108883E7002300269846002765
:102930009A460020A8E7002901D100289CD1002157
:10294000200000F057FB43461E685F689B68079AAB
:102950009A464346DB689846D3684B44013B1B7854
:102960000A931B020343136100208DE72369002BA8
:10297000BAD033003C005B1A94411A002300A742EE
:1029800019D89F421BD05946049101210391494611
:10299000029141460191514607980091FFF7B4FE1C
:1029A000B7E700F045FF089A099B06000F0092194F
:1029B0007B419942E5D901225242D317E3E796427F
:1029C000E1D901225242D317DDE7C046601D002045
:1029D000FFFFFF0FF8B557464E464546DE46E0B5C9
:1029E000404D81468A466A68EFF3108872B61368D4
:1029F000002BFCD0BFF35F8F2E68B47B002C38D047
:102A0000670033683F19033FDB195A78B273002A15
:102A100000D1F273344AA118AA6809015218494634
:102A2000116051465160314991600021D160997027
:102A300059701970737B9B46002B36D02200594683
:102A4000B06873689847002821D05B4658463168C3
:102A50005B005B44CF19033BB870CA18CB5C002BFA
:102A600000D07B705B46147073735C451ED00026EB
:102A700027E06B68BFF35F8F1C6088F3108801202C
:102A80004042F0BCBB46B246A946A046F8BD5B46F4
:102A90005B0032685B44033BD3189C70D119D25D54
:102AA000002A00D05A705B460B7074734A46534636
:102AB000287D00F037FF061ED9D02100286800F0DD
:102AC00017FBEB681B19013B19786B68BFF35F8F2D
:102AD00000221A6088F310880020002ED1D108024D
:102AE0002043CEE7C0030020FFFFFF0FD9260010D0
:102AF00010B5124C6368002B04D00A211048FFF770
:102B0000C9FD10BD23000F4A1021206800F08AF98A
:102B1000032000F081FE032000F074FF03200A4927
:102B200000F0BAFE00F04EFB084B9C4603236044C5
:102B30002375074B80006060DC60DEE7C003002087
:102B40007C1D0020A52600100D2800104000003438
:102B5000601D002000487047C0030020F0B54E46BD
:102B60005746DE464546E0B585B0019310AB1B786D
:102B70000600039300239A46994600927268EFF389
:102B8000108B72B61368002BFCD0BFF35F8F3568D3
:102B9000AC7B002C00D17FE067002B683F19033F1E
:102BA000DB195A78AA73002A00D1EA73524AA11895
:102BB000B2680901521800980199106051600E998D
:102BC00091600F99D1604A469A705A701A706B7B67
:102BD0009846002B00D176E022004146A8686B6839
:102BE0009847002861D04346404629685B0043442B
:102BF000CF19033BB870CA18CB5C002B00D07B7098
:102C0000434614706B7344455ED0F3681B19013B57
:102C100018787368BFF35F8F4A461A608BF3108889
:102C20005346002B08D10002204305B0F0BCBB4640
:102C3000B246A946A046F0BD039B002B5AD00E9B7E
:102C400000200F999847030004000D000B4351D05A
:102C500000290DDA0098019902000B00121BAB410C
:102C6000994213D83DD000920193039B9A4685E781
:102C700000F0DEFD02000B00A4185D4100940195F8
:102C8000A94203D8F1D100998A42EED901235B42CF
:102C9000DC1700930194E8E77368BFF35F8F1C6053
:102CA0008BF3108801204042BFE743465B002A684F
:102CB0004344033BD3189C70D119D25D002A00D045
:102CC0005A7043460B706C73307D009A019B00F084
:102CD00029FE8246002898D02100306800F008FACA
:102CE00093E700999142BED901235B42DC17009320
:102CF0000194BAE7002098E7FFFFFF0FF8B5CE4632
:102D0000474680B506000C00FFF764FE031E11DC89
:102D1000284A0020536A9C4203D8926A0130B2428A
:102D200003D3C0BCB946B046F8BDE31A5A1E93415E
:102D3000D8B2F6E720BF204D6968EFF3108872B66D
:102D40000A68002AFCD0BFF35F8F2868D9B2427BA3
:102D50008A4221D0FF2207681A40B9465700BC4674
:102D60004F4694446744033FBF78002F0FD0EF686D
:102D70001B0ABA18013A1278DBB29A4216D06B6875
:102D8000BFF35F8F00221A6088F31088C0E72A69BA
:102D90009342F4D12F61F2E7FF22EF681A40BA188C
:102DA000013A1B0A1278DBB29A42E8D100F0A0F98E
:102DB000E5E7C04600400540C003002070B50500AF
:102DC00014001600002915D00C00002A12D08068CB
:102DD0006B689847296800280ED073009B19620021
:102DE000033B1219CB18033A9C7088188A5C002A9E
:102DF00015D10670200070BD63001B197200033BE3
:102E00009219CB18033A9E7088188A5C002A02D166
:102E100004703400EEE75A7004703400EAE75A7028
:102E20000670E7E730B583600023CCB2437301330B
:102E3000047342608373C4730D000068012C06D9CB
:102E4000421C0133DBB2137003329C42F9D1FF21E3
:102E500029404B005B18C01800230338437030BD75
:102E6000F8B505000C1E07D0630001681B19033B71
:102E7000CB185A78002A01D12000F8BD50008018E4
:102E80000338091800204F78487021005870280036
:102E9000FFF794FF390006002800FFF7E1FF040068
:102EA000002EE9D0002826D031002200A8686B68E7
:102EB0009847296800280FD063001B197200033B54
:102EC0009219CB18033A9E7088188A5C002A00D0A9
:102ED0005A7004703400CFE773009B196200033B03
:102EE0001219CB18033A9C7088188A5C002A00D00B
:102EF0005A700670C0E73400BEE7C046F0B55746CA
:102F00004546DE464E46E0B50D006B0001685B1994
:102F1000DF1E0400C85D83B00192CA1900284CD09E
:102F200043001B18033BCB185E78B446002E16D125
:102F3000019E002E3ED0E67B002E04D073009B192C
:102F4000CB18033B5D70E57300282FD1002353702D
:102F500003B0F0BCBB46B246A946A046F0BD720025
:102F60006244033A8A185178884600215170894694
:102F70005970320001002000FFF720FF43468246CF
:102F8000002B07D05B0021684344033BCB185A78E1
:102F9000002A16D1424651462000FFF70FFF216854
:102FA000019BCA19002BC6D10028CFD043001B18A3
:102FB000033BCB1800219970C8E7019B002BBAD1C5
:102FC000C4E75000801803380918487883464846FB
:102FD0004870587041462000FFF7F0FE5946804681
:102FE0002000FFF73DFF414602002000FFF7E6FE0C
:102FF0008046CFE7F0B557464546DE464E46E0B53B
:1030000083B00191457B04006B0000685B19DF1EF3
:10301000C15DC21900294ED04B005B18033BC31899
:103020005E78B446002E18D1019E002E40D0E67B7B
:10303000002E04D073009B19C318033B5D70E57329
:10304000002931D1002328005370617303B0F0BC14
:10305000BB46B246A946A046F0BD72006244033AA0
:103060008218507880460020507081465870320097
:103070002000FFF7A3FE43468246002B07D05B00EB
:1030800021684344033BCB185A78002A17D14246A3
:1030900051462000FFF792FE019B01002068C219F3
:1030A000002BC4D10029CDD04B005B18033BC318C3
:1030B00000209870C6E7019B002BB8D1C2E75000F2
:1030C0008018033809184878834648464870587075
:1030D00041462000FFF772FE594680462000FFF768
:1030E000BFFE414602002000FFF768FE8046CEE7A3
:1030F00070B5040000292CD0437B8B422ED005688C
:1031000048004018033828188278002A21D053003C
:103110009B18033BEA5CEE188A4202D11BE0002AAE
:1031200008D053009B18033BEB185A788A42F6D11B
:1031300042785A7000230122837043702000FFF709
:10314000DDFE617B02002000FFF738FE6073012086
:1031500000E0002070BD43783370EBE701221900D6
:10316000FFF7CCFE60730120F4E7C0460123D022B4
:103170008340120693629361094A4021944683007A
:1031800063441A68C0004A408031114080225201D5
:1031900013431960034B9C4605236044436070470A
:1031A00004C00140004001400021044B044ABFF329
:1031B0005F8F02C39342FAD17047C046000100D02E
:1031C000800100D0044A1078431CDBB2172B00D9D1
:1031D000102313707047C046E803002010B5064B5B
:1031E000064C82B00100009318221F23200004F037
:1031F00099F802B010BDC046F87A0010901800206F
:1032000001238340002904D0034A1360034A13605A
:103210007047034A1360FBE780E200E000E100E052
:1032200080E100E001238340014A13607047C046FB
:1032300000E200E0084B10309B688000C358002B70
:1032400007D0064A00209B1A2F229A424041C0B262
:1032500070470020FCE7C04600ED00E0EC030020D2
:10326000024B10309B688000C058704700ED00E0B2
:1032700070B50D00EFF3108672B60F4A1368002B7D
:10328000FCD0BFF35F8F0D4B10309B6884001B593F
:103290000B4A934203D09D4201D000F07DFC074BC6
:1032A0009B681D51BFF35F8FBFF35F8F0022024BFE
:1032B0001A6086F3108870BD240100D000ED00E094
:1032C000CD010010F0B557464E46DE464546E0B506
:1032D00085B0060001911700EFF3108B72B6664AB5
:1032E0001368002BFCD0BFF35F8F0025634B5D5745
:1032F0009A46002D00DAA3E06B00614C02935B1943
:103300009B009846A146C1444B4652469B791036D5
:1033100013705C4BB2009B68009299580B1B2F2BCB
:1033200034D9594B994200D0A3E0029B42469C46B7
:10333000564B6544AD006353554B0232A218043B13
:103340009B1A1B05534A5B0D651913436B80524B47
:103350000121AB80FF23AB71019BEF71AB604B464A
:103360000B431900474B009A9B689950BFF35F8F3E
:10337000BFF35F8F0022404B1A608BF3108805B0BB
:10338000F0BCBB46B246A946A046F0BD01200A00EB
:103390008243D379BB422FD845464E4613003F495E
:1033A0001B1B5B415943090D384B6353384B0235A6
:1033B0006519043B5B1B1B05364D5B0D2B4373806E
:1033C0000426B446E044131F44441B1B1B055B0D3D
:1033D0001D434B46997101999D8099604946DF7163
:1033E0002F4B01431360BDE75800C0188000201820
:1033F000C679BE422AD902000623D356002BF3DA3F
:10340000101D8246BD2000020390042650467642DD
:103410004E44361A3005400D844666461D48957167
:1034200006439680029A94466544AA00A4181C4A52
:10343000A3712260019B039AE771A280A36091E7C8
:1034400000F0AAFB002553465D5755E7101D824644
:1034500090884005001584464046D44466460430B2
:103460002018301AE0260005400D36023043039044
:10347000CBE700F091FB58E7240100D0B21D0020FB
:10348000EC03002000ED00E0CD01001000A1FFFFE3
:103490001C04002000E0FFFF00BDFFFFAAAA0000FF
:1034A00001488047F0B5DE4657464E464546E0B5F2
:1034B0000C0083B0EFF3108A72B65A4A1368002BDF
:1034C000FCD0BFF35F8F1022914681444A46564B91
:1034D00096009B689D59554B98469D4205D0A54244
:1034E00016D0534FEB1B2F2B14D94F4B9B689D517C
:1034F000BFF35F8FBFF35F8F00224A4B1A608AF3DE
:10350000108803B0F0BCBB46B246A946A046F0BD49
:103510001D00EAE7012383409B465A46454B1B6842
:103520001A4000925A46444B1A60BFF35F8FFCF773
:10353000B2FE0190002803D0814501D000F02CFBA1
:1035400001232A009A4393689C4208D15FE04B0014
:103550005B189B00FB189968A14211D01A00062144
:1035600051560029F3DA009B002B05D05A46334B05
:103570001A60304B1A60B8E75A462F4B1A60B4E70E
:1035800006215956002921DB4A00501880003C18BA
:103590008046A0689860E079D8710620205698711E
:1035A000002824DBA488F81A640524154444001973
:1035B000E0240005400D240220439880204B52183F
:1035C00018789200BA1890711970CCE70199002907
:1035D00010D1FF3191711B49918019490A789A7174
:1035E000194ADB1B5B415A43120D0A70BBE7BD2031
:1035F0000002E2E7154A1649D21A083A5002400D75
:1036000001439980134952080A43DA80ABE7062147
:10361000515613000029B7DA019A002AEAD145462B
:10362000DBE7C046240100D000ED00E0CD01001032
:10363000EC03002000E100E080E100E080E200E037
:10364000B21D002000BDFFFFAAAA00002604002032
:1036500000F0FFFF00F8FFFFF8B501250400054367
:10366000FCF719FEEFF3108C72B6214A1368002B99
:10367000FCD0BFF35F8F1F4E2100B7681E4A1F4B5F
:10368000891A49414B431B0D59B28300F858A8428F
:103690001CD00623D3568B421CD01223D3568B4208
:1036A00022D01E23D3568B4220D02A23D356032068
:1036B0008B4210D0124B1A781970A271BFF35F8F32
:1036C00000220B4B1A608CF31088F8BDB2680D48CD
:1036D000D050EFE7002043001B189B00D218FF23B7
:1036E0009371094B9380E5E70120F4E70220F2E7AC
:1036F000240100D000ED00E0EC030020AAAA0000A5
:10370000B21D0020CD01001000BDFFFF054B064A91
:103710001360064A136053609360D3601361536172
:10372000936170478080808000E400E004E400E062
:10373000D02200B51206084B0100106883B018189B
:10374000064B00220093052303F0ECFD002801DB6B
:103750001F23181A03B000BDAC1D0020147B0010FD
:10376000F0B5D6464F464646C0B5EFF305823F2337
:10377000134018001038EFF3108C72B620490A6815
:10378000002AFCD0BFF35F8F0122170087401D4C39
:103790001600A24667631C4C2578A0462C00C44046
:1037A0002640224209D1BFF35F8F0E608CF3108850
:1037B000E0BCBA46B146A846F0BD5246566A134A26
:1037C0008400A25896420ED34246114BBD43E358A3
:1037D0001570BFF35F8F00220A608CF31088002BF6
:1037E000E6D09847E4E70B4A9B00904643441A68AA
:1037F0001A60BFF35F8F00230B608CF31088D7E74C
:10380000280100D000400540B51D0020881D002083
:1038100080170020D03F054010B5034B0100180071
:10382000024A03F05DFD10BDB11D0020307B001089
:10383000034B596A0A00986A596A8A42FAD170475A
:103840000040054070B504000D00124A536A19008B
:10385000966A536A8B42FAD13000190024184D4100
:10386000AB4211D80ED02B000A494A6A9A42FCD3C7
:1038700007D1084A02E0516A994202D1916AA142F5
:10388000F9D370BDA642EED9012301246442E517A5
:103890005B42E9E70040054070B504000D00EFF31E
:1038A000108672B61A4A1368002BFCD0BFF35F8FE4
:1038B000002D1BD02000FFF7D3FC164981420AD00F
:1038C0002000FFF7D5FC01212000FFF799FC012320
:1038D000A340114A1360114BA400E550BFF35F8F62
:1038E00000220B4B1A6086F3108870BD0121A140A5
:1038F0000A4BA200D5500A4B20001A788A4305498A
:103900001A70FFF7CFFD00212000FFF779FCE5E7F3
:10391000280100D061370010386005408017002072
:10392000B51D0020F0B54F46D6464646C0B5070047
:103930002F4C616A0D00A66A616AA942FAD18B42D6
:1039400008D805D00120E0BCBA46B146A846F0BD73
:10395000B242F7D9EFF3108A72B6264801680029FF
:10396000FCD0BFF35F8F0125BD402349204C884622
:10397000097889462943C9B28C4641466046087099
:10398000391D890065630A511C49B8004350216AFA
:103990000020294219D0616A0800A66A616A814242
:1039A000FAD18B4219D801D1B24216D8CC451DD0DC
:1039B0000F4B1F221D625D6301233A409340104A62
:1039C0000120136043464A461A70BFF35F8F0022FE
:1039D000084B1A608AF31088B5E70020BFF35F8FA9
:1039E0000022044B1A608AF31088ACE70120ECE750
:1039F00000400540280100D0B51D0020881D002092
:103A000080E200E0EFF3108C72B60A490B68002BDD
:103A1000FCD0BFF35F8F01238340074A074813623E
:103A200002789A430270BFF35F8F00230B608CF320
:103A300010887047280100D000400540B51D0020C7
:103A40002C4B2D4A70B51A602C4A2D4B2D491A600B
:103A500014008B689C43FBD12B4D2C4EB54208D2F1
:103A6000013E761BB60808CD984723000134B342C7
:103A7000F9D100F097F8264A214B1A60214A936841
:103A8000DB43DB01DD09002BF9D14022214B224C25
:103A9000224E9A675A671A67DA66B44208D22368D8
:103AA0002000002B20D00834FEF7E6FDB442F6D308
:103AB0001B4C1C4EC022B168200002F00DFCB4600B
:103AC000FFF772FBFFF722FEFFF712F8164C174EB6
:103AD000B44208D2013E361BB60808CC98472B00EA
:103AE00001359E42F9D170BD0834FEF7B7FDB442EE
:103AF000D5D3DDE700E00040BFCDFBFEFE7F3C00FC
:103B000000F0004000C00040900C0020980C002005
:103B1000FFFFFF0100F00140880C0020900C002006
:103B20000000002000ED00E0980C0020B80C002000
:103B3000094A03001068002805D00849C3188B42C1
:103B400007D81360704706480449C31810608B42B9
:103B5000F7D901204042F5E7381900200000042081
:103B6000B81D002000BEFDE70FB400B5084883B0C3
:103B700002F01AFD049B002B07D005A91800019143
:103B800001F0E2FC034802F00FFD00BEFDE7C04675
:103B9000547B0010E07A001010B50148FFF7E4FFF5
:103BA000647B001010B50C2082B000F0A7F903F080
:103BB00007FC00280ED0854B854A1A605A609A602F
:103BC000DA601A615A619A61DA611A62814A5A624C
:103BD00002B010BD804CA06700F0E6F901227F4BD7
:103BE0001A60636C012BFCD103227D4B1A607A4A68
:103BF000936B012BFCD1013301217A4A7A4800935F
:103C0000043300F027F90523784A0093012178480E
:103C100000F020F9774B5A68FF2A02D88022520020
:103C20005A6080226E4B694C12011A60216900298A
:103C300005D0606901F0FAFC01300138FDD1E022C5
:103C40006C4B6D4819680A400260022219685140A5
:103C500001320A40042102609A681142FCD080219E
:103C6000664A09011160802252005A60644B236148
:103C7000644B5968FF2900D85A6003220121574B31
:103C80001A60604A93681942FCD0E0231068034030
:103C90005D480360126803234A4002211340594AD9
:103CA000036093681942FCD08021584B09011960C8
:103CB0008021574B490051606361564B5A68FF2A77
:103CC00000D859608022544B12011A60E169002922
:103CD00005D0606901F0AAFC01300138FDD1E02374
:103CE0004C4A11680B404D490B6080214C4B090137
:103CF00019608021364B49005160E361494B5A6895
:103D0000FF2A00D859608022474B12011A60216AAD
:103D1000002905D0606901F089FC01300138FDD12E
:103D2000E023404A11680B4040490B608021404B22
:103D30000901196080235B0053608022244BD2026A
:103D400023623C4B5968914200D25A6080223A4B20
:103D500012011A60616A002905D0606901F066FCF1
:103D600001300138FDD1E023324A11680B4033495C
:103D70000B608021324B090119608023DB02536004
:103D8000144B63622F4B5A68FF2A02D880225200DC
:103D90005A6080222C4B12011A60A169002905D0BB
:103DA000606901F043FC01300138FDD1E023254A70
:103DB00011680B4025490B608021254B09011960D2
:103DC00080235B005360124BA36101E7941800202D
:103DD000006CDC021BB70000008000403CB00040DB
:103DE00030B00040002F685900800240008C8647A8
:103DF00000C00240308000403090004030A00040C1
:103E0000001BB7003C8000403C9000403CA00040BC
:103E1000405973075480004054B000405490004013
:103E200054A000406080004060B0004060900040BE
:103E300060A000406C8000406CB000406C9000407E
:103E40006CA000404880004048B0004048900040CE
:103E500048A00040F8B504000C2017001D000E001B
:103E600001F0E4FB43011B1A9901C91AC9000918A2
:103E70008901380001F0DAFB069B29041B03194372
:103E80002368002B20DB194B194DE3185A4253418C
:103E90008022520194461B03164A63441360164A5B
:103EA00013601F00AA689743FBD1C023221D9B010A
:103EB000134321222660A0601A602268002AFCDADF
:103EC0000822E1601A60F8BD3F2322681340B34224
:103ED000D9D1A3681B051B0D8342D4D1EE22E36820
:103EE000D20213408B42CED1EDE7C0460040FDBF69
:103EF00000C0004000E0004000F000408023024A83
:103F00009B000343D36270470080054010B5140046
:103F100080221C4BD2051A6000281AD001231A4AAD
:103F200018431A4BDA611A4A42401A62596298627F
:103F30008022144BD2051A601649174A1160E022FC
:103F4000D2041A60002C07D18022144B12061A608A
:103F500010BD0E4BD861EBE763011B1B9A00802359
:103F6000121912015B049A4208D20D4B1A60074BDA
:103F70005A608022094BD2051A60E9E7084B094ACA
:103F80001A60F4E700B00540D3C007B000800540D8
:103F90002D3FF84FFCFF01000820014000A0054024
:103FA000401D0020FFFFFF00AA23064A1B011360EB
:103FB0002F230549D360054B19605368002BFCDAA9
:103FC0007047C0460040024000B0FA000060024066
:103FD0007047C046F8B557464546DE464E46E0B502
:103FE00098460A9B06009A460D9B0F0093461500C3
:103FF0009B0710D10B9B0C9A93420CD213005C468A
:104000000B9A9D1A5D44220043460134390020205A
:10401000B047A542F7D10B9C6319002C09D01D00B5
:1040200053462A1B013C185D39004346B047002C1B
:10403000F6D10D9B9B070ED55B46EC1A0C9BA34259
:1040400009D999462A004346390020200134B04757
:104050000135A145F6D82800F0BCBB46B246A946BA
:10406000A046F8BDF0B54F464646D646C0B584B02A
:1040700098460EAB1B78129F994694460D9C109B58
:10408000119EBA0725D4002E61D19C4200D3C0E016
:1040900001223A4092461F2C00D9B9E00C9A551ED5
:1040A000302201E0202C03D001342A55A342F9D854
:1040B0005246002A0DD0A6420BD90C9A551E30222A
:1040C000202C02D155E0202C53D001342A55B44283
:1040D000F9D1FA062DD57A0554D4002C4ED10F9B78
:1040E000102B00D188E00F9B022B19D030230C9AA3
:1040F000012413704B46002B20D02D230C9A13550E
:1041000001340C9B62460093039743460296019448
:10411000FFF760FF04B0E0BCBA46B146A846F0BD68
:1041200001240C9A6033137030220C9B1B191A70F7
:104130000134202CE5D04B46002BDED17B0730D458
:104140003B07DED520230C9A13550134D9E7012211
:1041500015003D40AA463A421CD04A46002A2BD1BF
:104160000C323A4228D19C42A5D21F2C96D9202E3F
:1041700015D92024FA06C4D57A0503D4A3421DD04C
:10418000B4421BD00F9B102B23D0022B0ED0202C1F
:10419000B7D0C9E79C429CD21F2C00D87EE72024D0
:1041A00097E72B230C9A13550134AAE7202CA8D0AB
:1041B0000C9B1B19013438E0013ED4E7631E012C2F
:1041C00000D18CE70F9A102A25D0022A2AD01C0091
:1041D000AAE7BB0607D4202C93D00C9B1A190134F4
:1041E00078231370D3E7202C00D18AE758220C9B48
:1041F0001B191A700134CAE7BB0604D478230C9A41
:104200000124137090E758230C9A012413708BE754
:10421000202400265DE7023CBA06E7D40C9A121966
:104220001C00DDE70C9A9246534462221A70AEE7F6
:1042300010B5002800D110BD02F066F9FBE7C046BA
:104240000B0010B5002802D049681B68984710BDC4
:10425000F0B5DE4657464E464546E0B59BB09B4618
:10426000249B89469846259B0B900C9240464246DB
:1042700019009A4601F0ABFC002800D0D8E00122DA
:1042800040465146774B524201F09CFC002800D03A
:10429000CEE0012240465146734B524201F07CFC75
:1042A000002800D0C4E0002200234046514601F01F
:1042B00073FC002800D0B9E1424653460A920993A4
:1042C0008023289ADB001A400E92289A1A4201D1C4
:1042D000062326930A9A099B1600134300D0C7E0D1
:1042E000289B002500261B0500D49BE100230D938D
:1042F000269A0D9B9A4200DC9FE1D31A013B26933C
:104300008023289ADB001A430023002728920D936C
:10431000279B0024BB4200D9DC1B0223289A1A40A9
:104320000E92289A134203D07B427B415B421C4091
:104330000D9B002B07D00A9809992A00330001F041
:10434000CAFB0A900991002200234046514601F021
:1043500023FC002805D0802000068446099961448A
:104360000991289A414B0B9D13400493269B0A9A6E
:104370000293099B03940092019349465B462800EF
:104380000C9A00F08BF90400002F62D0289B2200C9
:1043900098061F23C0179843631C984649465B46FE
:1043A0006530A8470D9A0025D317D4185C40D30F69
:1043B0009A46013F01E0202D13D00AAA94461F23FC
:1043C000200063440A2101355E1901F02FF93031D4
:1043D000317020000A2101F029F926000400092E7D
:1043E000E9D805230693002304930A330393534625
:1043F00005970B9F029312AB009342465B464946DA
:1044000038000195FFF72EFE0E9B0400002B20D0F4
:104410000C9BC51A279BAB421BD91E0022005B4692
:10442000494620200135B8470134AE42F6D810E0A5
:10443000289B42460493279B49460393269B0B984F
:1044400002935346009201935B460C9A00F026F9C2
:10445000040020001BB0F0BCBB46B246A946A046F3
:10446000F0BDC046FFFFEF7FFFFFEFFFFFF7FFFF4D
:10447000734B099F9C467800400D604401F0BAFBE5
:10448000704A714B01F045FB704A714B01F01AFB09
:104490003B03704A1B0B1A4304000D00300011004F
:1044A0006D4B002201F005FB6C4A6D4B01F031FBB6
:1044B00002000B002000290001F004FB01F0B2FB18
:1044C0000D9001F097FB674A674B04000D0001F067
:1044D00020FB0022654B01F0F5FA01F0A3FB644AD2
:1044E0000600644B2000290001F013FB040030009B
:1044F0000D000F9601F07EFB5F4A604B01F009FB57
:1045000002000B002000290001F0D3FA02000B008A
:1045100006000F0001F0FDFA320004000D003B0020
:104520003000390001F0CEFA002210901191544B66
:104530002000290001F0CFFA0022524B01F0C2FA0C
:1045400002000B002000290001F0C5FA00224E4BAA
:1045500001F0B8FA02000B002000290001F0BBFABC
:104560000D008021040032003B000020C90501F04D
:10457000A0FA02000B002000290001F0A3FA0200BB
:104580000B001098119901F0A6FA0022314B01F0AE
:1045900099FA3E4B0F9C9C4664440022230501F08F
:1045A000B8FA05000E0002000B000A98099901F004
:1045B000F3FA00280AD00D9B2800013B31000D932F
:1045C0000022304B01F087FA05000E00C6270D9936
:1045D0002B0063318F42BF4128997F420437090580
:1045E00000D495E6334300D182E6099C284A210095
:1045F000284B0A9801F0DEFA002808D0002221009A
:10460000254B0A9801F0C8FA002800D070E6269BD6
:10461000002B00D17CE60E9B5A1E9341269AD31A9A
:10462000269375E6002304270D9371E643460A930B
:1046300080231B065344099342E6002326935FE63A
:1046400001FCFFFFFB799F501344D33FB3C8608B3D
:10465000288AC63F0000F03F0000F83F61436F63C7
:10466000A787D23F71A379094F930A400000E03F2A
:104670001655B5BBB16B0240EF39FAFE422EE63F4C
:1046800000002C400000244000001840FF03000000
:104690002D431CEBE2361A3F80842E41F0B54E4686
:1046A000DE4657464546E0B597B09946209E219F85
:1046B000229B8346984607910C923B0032003000C3
:1046C000390001F084FA002800D0ADE10122300069
:1046D0003900CC4B524201F05FFA002800D003E1D0
:1046E000012230003900C84B524201F06BFA002819
:1046F00000D0D9E0002230003900C44B01F062FA4A
:10470000002800D0BBE0002230003900C04B01F08F
:1047100043FA002800D0B2E0002200233000390024
:1047200001F03AFA002800D0D3E000230D93249B37
:104730005B0501D40623984608AB9C46172200244B
:1047400030234146624404E0013413550139202CE2
:1047500001D00929F8D888463000390001F062FA02
:104760004246AC4BD2009B181A685B680500089261
:10477000099301F03FFA02000B003000390001F00C
:1047800098F9089A099B01F0C4F90A900B9101F07D
:104790006DFA824601F02AFA02000B000A980B9982
:1047A00001F087F900229C4B0A900B9101F00AFA64
:1047B000002800D1E2E001239C46E244504601F08B
:1047C00015FA02000B000898099901F0EBF900288E
:1047D00002D000239A4601354346002B00D18BE0DE
:1047E00008AB17269C4608956644554614E00123FD
:1047F0005B4243440A2128009A4600F017FF013427
:1048000030313719397028000A2100F00FFF092DC7
:1048100000D8D0E0D0460500202CE8D10EAB984659
:104820000323249A1340012B00D0E8E0239A20238D
:10483000002A1DD00D9A002A00D0FDE024990C32E8
:104840000A4215D0239A013A2392239A9A4200D819
:1048500005E108AA9446172130226144202B07D095
:1048600023980133CA54834200D1E9E0202BF7D1C9
:10487000249A01930392239A434602921EE0249BBA
:1048800058460493239B00960197039343460C9A42
:10489000029307994B46FFF7DBFC17B0F0BCBB4611
:1048A000B246A946A046F0BD249B5B070ED4032266
:1048B0005A4B2499019203912399029100935846EF
:1048C0004B460C9A0799FFF785FBE6E70422544B09
:1048D000EFE73B0032000020002101F0EAF801235D
:1048E00006000F000D9322E7249B0393239B029362
:1048F000042301934B4BE1E7280001F07BF9020010
:104900000B003000390001F0D4F8434B00220600C0
:104910000F0001F041F90EAB984600280AD10022A1
:10492000300039003C4B01F04DF9002802D1EB0773
:1049300000D50135202C00D172E708AA9446172330
:10494000280063440A2101341E1900F047FE30316B
:10495000280031700A2100F041FE051EEAD1032330
:10496000249A1340012B6DD0202C48D00D9B002B96
:1049700014D02D224146631C0A5579E700220A987B
:104980000B99254B01F008F9002800D024E7534685
:10499000002B30D101239C46E2441DE7249B5B079A
:1049A00024D4249A2300120700D461E72022414630
:1049B00001330A555CE75746089D202C00D12DE7AE
:1049C000220030214046002F09D00132B154202A64
:1049D00000D123E7831A013BE318002BF5D10EAB7E
:1049E00098462E234146541C8B54A3E72B22414664
:1049F000631C0A553CE7DB0700D4EDE6CAE7202339
:104A000036E7C046FFFFEFFFFFFFEF7F65CDCD41EB
:104A100065CDCDC1287D00100000E03F787B0010FF
:104A2000707B0010807B0010249B0393239B0293D8
:104A3000032301930C4B41E7239A013A239217E792
:104A4000040091E7239B002B8ED00D9B002B08D1F7
:104A50000C2224992300114200D1F6E6F2E61C0054
:104A600082E72300EEE6C0467C7B0010F0B5DE4610
:104A700057464E464546E0B5A1B01C002A9B9246DB
:104A80000993B94AB94B81468B461A60002900D177
:104A90002BE120780027002800D12DE1B44B5E46A1
:104AA0000893B44B0C9309E03A00534631007D1C47
:104AB000C8472F0001342078002871D02528F3D171
:104AC00010239B460C3B9846023B00229C46013437
:104AD000207825000300203BDBB2102B03D8089977
:104AE0009B00CB589F460300303B092B6BD900231A
:104AF00098462A2800D18AE000230A932E2800D164
:104B000076E00300683BDBB2122B1CD89A499B006D
:104B1000CB589F46012301341A43D9E76346013439
:104B20001A43D5E7434601341A43D1E75B460134C3
:104B30001A43CDE7082301341A43C9E780235B00F9
:104B400068781A43013567280AD824281DD903003C
:104B5000253BDBB2422B18D80C999B00CB589F46C3
:104B60000300693BDBB20F2B0FD80121834C994026
:104B7000A4460C400B946446214200D002E20A2B6A
:104B800000D1E1E0072B00D1B8E07B1C98463A0049
:104B9000534631006C1CC8472078474600288DD109
:104BA000B3463C00BA4501D853465F1E53463A000F
:104BB00059460020C847200021B0F0BCBB46B24691
:104BC000A946A046F0BD002301009800C018013599
:104BD000400040182978030008003038303B09288D
:104BE000F3D99846002308000A932E2800D088E7BE
:104BF00080236878DB001A430300303B691C092BD3
:104C000000D807E12A2800D116E10D0079E7099BB9
:104C100002CB8846002903DB60780993651C6BE7AB
:104C200002210A4341464942884660780993651C3F
:104C300062E768786C2800D123E280235B001A4386
:104C4000013580E780239B0068781A4301357AE7B5
:104C50006878682800D11AE2802301351A4372E788
:104C6000462800D18BE10721099B04924246073375
:104C70008B43190003920A9A484602920CC900928B
:104C8000019309913A0053463100FFF707FD6C1C70
:104C9000070010E77B1C98463A0053463100252058
:104CA000C84747466C1C06E7920700D431E2099BCF
:104CB0003A0001CB31009B46C0B25346C847434639
:104CC0007C1C4744012B00D8FBE2A8464D4622003D
:104CD0005346013431002020A847BC42F7D1A946F1
:104CE0005B46454609936C1CE5E6254B20789946C2
:104CF0000027002800D0D1E6002453E7099B1900C3
:104D000008C98846002B00D1A6E021210A4393461A
:104D100010A98C461F220F21624409958C4615006C
:104D20000B9C02E0202C0CD01300604618400100C0
:104D30003731092800D80739013429551A090F2BB2
:104D4000F0D8099D0B9490E0099B02CB12930A9B2B
:104D50008B46002B7AD108780221494200281AD0CC
:104D600001315C4659440FE06D4A00103C1D0020A3
:104D7000887B0010187C0010CC7B00104190000054
:104D8000D13F00108C4203D063780134002BF9D15D
:104D90005B46E31A0B9380231100DB001940099155
:104DA0001A4204D00A9B0B99994200D90B93022313
:104DB000190011400D91134200D18BE1002800D160
:104DC00073E1099B002B00D142E10A9B3A009C460B
:104DD0005B46BC44DB1B64469B464B460994A94694
:104DE0001D0009E053463100571CA8475B46D85DBB
:104DF000002800D155E13A009442F3D12B004D46F2
:104E00009946099F0D9B002B00D04EE1129B6C1C14
:104E1000099350E6002304009800C01801314000B7
:104E200000190C78030020003038303B0928F3D9F2
:104E300020000D000A9364E6099B023501CBC143B3
:104E4000C91708400A90099328785AE6087800287C
:104E5000A1D00A9B591E83E710211000884311310D
:104E600008438346520500D452E75B460693082365
:104E700005930A9B3A0004931023039300230293A3
:104E80000B9B3100019318AB009348465346FFF744
:104E9000E9F8434607006C1C09930CE62023010047
:104EA0009943472904D180231B011A4302239843C5
:104EB000452801D120231A430721099B0492424629
:104EC00007338B43190003920A9A484602920CC991
:104ED0000092019309913A0053463100FFF7B8F967
:104EE0006C1C0700E7E5622800D1F6E16F2800D1CD
:104EF00032E1582800D1CFE010239A43063B0D93AE
:104F0000692800D024E10B92530546D501230B9A62
:104F10009A430B92692840D064283ED00B9A802394
:104F200011009B0019408B461A4200D0DCE180231F
:104F300014005B001C401A4200D07BE213005B06A9
:104F400000D48BE1FF22099B02CB11408B460993D1
:104F50005B46002B00D08CE10B9A10331100994373
:104F60000B91520500D484E100240B9B0693434629
:104F700005930A9B04930D9B0393002361E1202377
:104F80001A4370E610230D937828ACD10C2311003E
:104F900099430B915205B9D4BCE70B9A80231100B9
:104FA0009B0019408B461A4200D0D8E080231400A1
:104FB0005B001C401A4200D0E2E113005B0600D502
:104FC00027E1130009991B0600D495E208C91BB21A
:104FD000D8171A18424092B209919346DA0F1392E9
:104FE000002B09D1802310220B99DB000B40914349
:104FF0000B91002B00D01BE10B9A6123920600D588
:105000004123DBB210A90A3B1F228C461293434670
:105010006244A84614970D9D5F461593B34616004B
:105020000AE03033DBB201343355AF4200D24EE1F7
:10503000202C00D14BE107002900380000F0F6FADF
:10504000CBB20929EDD9129A94466344DBB2EAE760
:105050005B46DB1B9B460B9B4C4699465346AA4638
:105060001D003A002B003100A0475B460137D85D98
:105070000028F6D14B460B932B00A14655469A4685
:10508000C0E6C0239B00A8781A4302355BE5C02325
:10509000A8781A43023556E520231A43103B0D9396
:1050A00074E72B004D469946ACE60B9BBB469845F2
:1050B00000D8ABE647445C46A8464D46FF1A22009E
:1050C0005346013431002020A847BC42F7D1A946FD
:1050D00045469BE60B9A531C904500D822E2434676
:1050E000DB199C1A4B46A9461D003A00534601376E
:1050F00031002020A847A742F7D12B004D46994602
:10510000434601330B935B461878002800D058E6DD
:105110007CE64346012B00D802E27C1E4444A846AC
:105120004D463A005346013731002020A847A74298
:10513000F7D1A9464546099B220001CB310098468C
:10514000C0B25346C8474346671C09936C1CB2E47F
:10515000642800D1D7E619E708230D9316E7072244
:10516000099B07339343013294469C44624609925B
:105170000CCB9C46DB1710931193109811990300E8
:1051800053400E9364460B0063400F930E9B0F9C9D
:105190001B1A8C410E930F946346DB0F139300236D
:1051A0009B4663461A433BD00B9A6123920600D577
:1051B0004123DBB20A3B1293434610A91F228C46BF
:1051C000002415934B466244B14614971695270068
:1051D0000E9C0F9D90460D9E17930CE03032D2B27C
:1051E00043460137DA55AB4500D177E1202F00D196
:1051F00077E104000D00320000232000290000F0B8
:1052000057FAD2B2092AE9D9129B9C466244D2B21B
:10521000E6E7FF22099908C913401A000991DCE664
:105220000B9A10231100994300240B915205BBD512
:105230000B9B0693434605930A9B04930D9B039394
:10524000139B029318AB3A0001940093310053462C
:105250004846FEF707FF6C1C07002CE413001B06F2
:1052600000D458E1099B04CB1204120C9346099315
:105270006EE60B9A6123920600D5412310A91F22E6
:105280008C46DBB262440A3B139714965F461600C5
:10529000AB4612930D9D08E03033DBB20134335539
:1052A000AF421DD3202C1BD007002900380000F08E
:1052B000BDF9CBB20929EFD9129A94466344DBB207
:1052C000ECE75B46270009936C1CFFF7F4FB159B8A
:1052D00045465E469846149FAAE702230D9355E67D
:1052E0005D46139F149E40E60722099B07339343B4
:1052F000013294469C44624609921A685B68100029
:105300009B4613005A46134307D10B9A10331100E2
:1053100099430B91520500D526E60B9A612392061C
:1053200000D54123DBB210A90A3B1F228C46129301
:10533000434662441397159500245D460700B34623
:1053400090460D9E14930DE03032D2B243460134A4
:105350001A550023AB4200D1D4E0202C00D1D4E078
:1053600007000D00320000233800290000F0A0F9EA
:10537000D2B2092AE8D9129B9C466244D2B2E5E730
:10538000099B1A0008CA1592DA179C185440DA0FC4
:105390001492002B08D1802310220B99DB000B40C4
:1053A00091430B91002B2BD10B9A6123920600D5D0
:1053B000412310A91F228C46DBB262440A3B12979C
:1053C00013965F461600AB4609930D9D08E03033F7
:1053D000DBB20137F355AC420ED3202F0CD00400C2
:1053E0002900200000F022F9CBB20929EFD9099A4F
:1053F00094466344DBB2ECE75D46139EBB46129FC6
:105400000B9B3A000693434605930A9B3100049395
:105410000D9B48460393149B6C1C02935B460193BF
:1054200018AB00935346FEF71DFE159B070009932A
:10543000FFF741FB099B10CB1493002C08D180236C
:10544000DB0011001340102291430B91002B2BD154
:105450000B9A6123920600D5412310A91F228C4686
:10546000DBB262440A3B129713965F461600AB46C6
:1054700009930D9D08E03033DBB20137F355AC42A0
:105480000ED3202F0CD004002900200000F0CEF80D
:10549000CBB20929EFD9099A94466344DBB2ECE711
:1054A0005D46139EBB46129F0B9B3A0006934346F4
:1054B00005930A9B310004930D9B484603930023F8
:1054C00002935B46019318AB00935346FEF7CAFD67
:1054D000149B070009936C1CFFF7EDFAA64200D855
:1054E00084E6159B0E940F959846179B3C004E46FC
:1054F000169D9946149F9BE608C9D8171A18424072
:1055000009916AE5BE4200D827E7149B5E4698469B
:10551000139F159D29E5099B04CB9346099317E535
:105520003C0008E60B93F0E500B585B0039101213E
:1055300002900093034813004A4202A9FFF796FA2B
:1055400005B000BD4142001010B5094A03001468BF
:1055500084B0002C08D0012200910648524203A9D1
:10556000A047012004B010BD01F01EF80020F9E7AB
:105570003C1D002031420010142310B50100188892
:1055800004331B88984710BD162310B501001888F6
:1055900002331B88984710BDF8B54746CE4680B504
:1055A0000F1E19D014239946043304000025012648
:1055B00098464B461888434621681B88984701C483
:1055C000431E9841013540420640AF42F1D13000C0
:1055D000C0BCB946B046F8BD0126F8E7124A936F41
:1055E0009B0815D29066D166002905D0FFE7FFE73A
:1055F000FFE7516F106F704704B580210906C2178D
:105600005140002800D0C84302F096F8002104BDA4
:10561000F0B5146E556E576F166FFFF7E3FF146603
:10562000556657671667F0BD000000D0114A936FAA
:105630009B0813D210665166002905D0FFE7FFE7EB
:10564000FFE7516F106F704704B5002801D00020AC
:10565000C04302F071F8002104BDC046F0B5146EDD
:10566000556E576F166FFFF7E5FF1466556657675F
:105670001667F0BD000000D094464E4A926F920823
:10568000624601D230E0C046F0B54A4EB56F6D08B3
:10569000FCD3346E756E776F366F00F025F8944644
:1056A000444A14665566576716676246F0BDC046A1
:1056B0009446404A926F9208624601D258E0C04632
:1056C000F0B53C4EB56F6D08FCD3346E756E776FD8
:1056D000366F00F04DF89446364A146655665767A3
:1056E00016676246F0BDC046002B24DB11D00029AE
:1056F0003EDA00B5C943404200D1013100F038F82C
:10570000C943404200D10131DB43524200D1013351
:1057100000BD002AEBD1002801D1002905D00020CE
:10572000C90FC90701D1C043410800B501F0FCFF12
:105730000022002300BD00B500290ADBDB435242F2
:1057400000D1013300F014F8C943404200D10131C7
:1057500000BDC943404200D10131DB43524200D178
:10576000013300F005F8DB43524200D1013300BDA4
:10577000002923D1002B18D1002A0CD0BC460D4F94
:1057800038667A6600210023FFE7FFE7FFE77A6FBC
:10579000386F67467047002801D00748010000B500
:1057A00001F0C2FF0022002300BD02000B00002018
:1057B00000217047000000D0FFFFFFFF002B00D04A
:1057C000BFE0130C28D1002AE7D080B4114F39660E
:1057D0007A66FFE7FFE730B4040C7B6F396F1B0478
:1057E00023433B667A66FFE7FFE7FFE7C04684B2E4
:1057F0007B6F3D6F1B0423433B667A66FFE7FFE741
:10580000C04600232C042D0C7A6F386F00196941B3
:10581000B0BC7047000000D0F0B594460025140ECF
:1058200001D112020835140F01D112010435940F71
:1058300001D192000235D40F01D152000135D40BB1
:105840000134254F7C66254C3C660E0C93B2FFE775
:10585000FFE7FFE73C6F6643360C7703BE467343B2
:10586000DF0B5B04C01AB941130C7343DB18C91A70
:10587000CE086643360CB64493B273431F0F1B0128
:10588000C01AB941130C73431F0B1B05C01AB94151
:10589000860D8F023E436643360C092D24DB520AE7
:1058A0007243801A7703460A6643360C16235B1B45
:1058B000DE40DF40BF1964466643821B70460435F4
:1058C00006330100D940A840C01900D30131A242DB
:1058D00006D20023F0BD0000000000D0FFFFFFFF54
:1058E000121B0130F3D3F1E709277F1BFE4064460A
:1058F000A2B27243801A00D20139220C7243130CF7
:105900001204821A99410B007046043513370100C6
:10591000F940A840801900D30131002B02D1A242E6
:105920000AD2F0BD013000D30131121BFAD2013B83
:10593000F8D1A24200D2F0BD013000D30131121BD8
:10594000F7E7F0B51C0C00D080E00CB400251C0A71
:1059500004D11B02160E3343120208351C0B04D16E
:105960001B01160F3343120104359C0B04D19B001D
:10597000960F334392000235DC0B02D192185B4143
:1059800001351C00971864410134464F7C66464C33
:105990003C660E0CFFE7FFE7FFE7C0463C6F66433F
:1059A000360C7703BE4697B27743C01B00D201394D
:1059B000C01B00D201399FB27743C91BC91B170C0A
:1059C00077437E04FF0B801BB941CE086643360C3B
:1059D0000C2D33DBB644120B1F053A431B0B97B259
:1059E0007743C01B00D201399FB27743C91B170C04
:1059F00077433E043F0C801BB941860D8F023E4326
:105A0000664329277F1BFE400C3D7746AF40BF19F8
:105A100030BCA2B2ABB272437343801A9941220CDC
:105A20007243130C1204801A994102000B000137D3
:105A3000001BA941F9D2781E0021F0BD0C277F1B65
:105A4000FE4077467F0BAF40FF19E0E700245D1C66
:105A500007D0144F7D663966FFE7FFE7FFE7FFE7F2
:105A60003C6F95B29EB265436643401BB141150C35
:105A70001E0C6543664336042F0C3E432D04401B29
:105A8000B141994204D202000B0020000021F0BD78
:105A900001D19042F7D3801A994101349942F2D34F
:105AA000F6E70000000000D0FFFFFFFF4840414044
:105AB000484018B41B4B5B68FC46019308BD04DFEB
:105AC000535D001018B4174B1B68FC46019308BDCA
:105AD00000DF5D5D00109446134A926F920809D270
